:02000002B0004C
:1040000000400B0084920B00000006000C0005022B
:084010000401A60F00000000EE
:0440180008880B0009
:1040200009480A49884208B505D0094A824202D0A7
:10403000121A04F011FB0748074A0021121A04F073
:1040400019FB014808BD00BF84E50320F0910B0077
:10405000F0E50320F0E50320EDE7032070B5074EFF
:10406000074C03F0BDFBA41BA4080025AC4200D103
:1040700070BD56F8043B98470135F7E798910B005F
:10408000BC910B0000F048B908B500F0D7FBBDE8C3
:10409000084003F05DBB02F06DBA02F06BBA02F0AB
:1040A00071BA000008B5034A03490C2002F0AEF9CA
:1040B000FEE700BF6D610B001C880B000078B0FAB2
:1040C00080F04009704701230370704738B5124DE6
:1040D00000212846E97600F0B7FC4FF0FF334FF09F
:1040E0001E1224212846C5E9042300F052FF0B4B81
:1040F0001C68002C0EDA2D21284602F061FF614277
:1041000005480A2202F05FFFBDE8384040F2DC506B
:1041100002F068BA2146F3E768E6032040E6032090
:1041200038B5046805467CB16368013B63605BB9E0
:10413000236820469B689847A368013BA3601BB98E
:1041400023682046DB689847284638BD2DE9F04FA4
:10415000DFF8B891DFF8B8B1614DDFF8B881614F91
:10416000614E624CE722A723C9E90023604A082375
:1041700091B04FF4FA701360CBF8003002F032FACD
:104180005C49002314222B60C8F800303B60338068
:104190000A609A46574B1A6852455CDD3721204623
:1041A00001F0E3FC204601F0DCFC514999F80030B5
:1041B0009BF800200978204601F0E5FC322002F04F
:1041C00011FA3221204601F0C9FC204601F0C0FC62
:1041D000204601F0CDFC3080204601F0BCFCD8F830
:1041E000002033881344C8F800302B68013303F0F3
:1041F000010348BF5B42372120462B6001F0B5FC2C
:10420000204601F0AEFC3A4999F804309BF80020B2
:104210000978204601F0B7FC322002F0E3F93221A0
:10422000204601F09BFC204601F092FC204601F064
:104230009FFC3080204601F08EFC3A68338813449E
:104240003B602B68013303F0010348BF5B422B60E6
:104250000AF1010A9EE7D8F8003093FBF2F300EE72
:10426000103A254B254DB8EEC00A062183ED000A11
:104270003B6893FBF2F307EE903AF8EEE77A04A876
:10428000C5ED007A03F074F804A908A803F040F81B
:104290001B4908A803F0A9F895ED000A0446062179
:1042A0000CA803F065F80CA9204603F092F8154B12
:1042B00002681B7814498DF8003002A83C2302F0F4
:1042C000F7FA03A8FFF72CFF0CA802F0B3FF08A829
:1042D00002F0B0FF04A802F0ADFF11B0BDE8F08F0E
:1042E00024E6032064E6032044E6032048E6032096
:1042F00010E603205CE6032038E603203CE60320BA
:1043000031880B0034E6032035880B002CE60320AF
:1043100014E6032060E603201FB503F047F94FF4CD
:10432000165103F037F94FF4A072F0211A4801F04A
:10433000A1FA01F023FF0021174800F085FB01F0EE
:104340001DFF03F003FB02F0A7FCFFF7FFFE13487D
:1043500001F0F6FB024658B9114B12491B788DF853
:10436000003002A83C2302F0A3FA03A8FFF7D8FE0E
:104370004FF4FA6002F036F90B4B0C491B788DF8BC
:10438000003000223C2302A802F092FA03A8FFF7B3
:10439000C7FE05B05DF804FB68E6032048E603208D
:1043A00028E603203F880B0034E6032051880B00E9
:1043B00070B5324E324C3368012B8CB055D1314B35
:1043C0001D68002D53D123682F49013308A82360AD
:1043D00002F07BFF0A22216804A802F0B6FF04A9BC
:1043E00008A802F0F6FF294B01681B788DF8003011
:1043F0002A463C2302A802F05BFA03A8FFF790FECE
:1044000004A802F017FF08A802F014FFFFF75EFEF1
:1044100035601C4D2B68012B29D123681A49013BBB
:1044200008A8236002F051FF0A22216804A802F0C4
:104430008CFF04A908A802F0CCFF144B01681B787C
:104440008DF8003000223C2302A802F031FA03A8C4
:10445000FFF766FE04A802F0EDFE08A802F0EAFEEF
:10446000FFF734FE00232B6001E0002BD1D023683E
:10447000002BDCBF002323600CB070BDF0E50320EF
:1044800040E60320F4E503205C880B0034E60320BB
:104490007FB5294B294D1E69D3E90021D3E90204D8
:1044A0008A42B4BF01220222A042D4BF02210121CC
:1044B000B0422A60696026DA5B699C42ACBF022484
:1044C0000124012AAC6020D1012913D1012C11D182
:1044D0001B4B1C491B788DF8003000223C2302A89E
:1044E00002F0E6F903A8FFF71BFE174B1C60174B01
:1044F00000221A600023C5E90033AB6004B0BDE8B8
:104500007040FFF755BF0224DBE70229F2D1012CEE
:10451000F0D10B4B0E491B788DF8003000223C2364
:1045200002A802F0C5F903A8FFF7FAFD064B002226
:104530001A60064B1C60DDE7F8E5032018E603204F
:1045400034E6032066880B00F0E50320F4E5032041
:104550006D880B002DE9F74FDFF84CA14B4E4C4F07
:10456000DFF84881DFF848B10223CAF80030494B30
:10457000002535801D600023474CC8F80030CBF87B
:1045800000300193DAF80030019A934272DD232162
:10459000204601F0EAFA204601F0E3FA3F4B404A98
:1045A00040491B7812780978DFF8E890204601F03E
:1045B000EAFA1E2002F016F82121204601F0CEFA78
:1045C000204601F0C5FA204601F0D2FA308020469C
:1045D00001F0C1FAD8F8002033881344C8F800303D
:1045E000D9F80030013303F0010348BF5B420A20D1
:1045F000C9F8003001F0F6FF2321204601F0B5FA9A
:10460000204601F0AEFA254B254A26491B7912783F
:104610000978204601F0B7FA1E2001F0E3FF2121BE
:10462000204601F09BFA204601F092FA204601F064
:104630009FFA3080204601F08EFADBF80030328895
:10464000DAF800101A44D9F80030CBF80020013312
:1046500003F0010348BF5B42C9F80030D8F80030CE
:1046600093FBF1F33B60019B92FBF1F201337A6023
:10467000019387E70135032D07F108077FF47BAF2E
:1046800003B0BDE8F04FFFF703BF00BF44E60320CF
:10469000F8E5032024E6032048E603202CE6032067
:1046A00014E6032010E603205CE6032060E6032006
:1046B00064E603202DE9F84F544FDFF87091DFF8DE
:1046C00070A1DFF870B1524E524C002501233D809D
:1046D000C9F80050CAF80050CBF8003035602321EB
:1046E000204601F042FA204601F03BFADFF848810B
:1046F000494B4A4998F800201B780978204601F078
:1047000042FA192001F06EFF2121204601F026FA1D
:10471000204601F01DFA204601F02AFA3880204692
:1047200001F019FAD9F800203B881344C9F8003089
:104730003368013303F0010348BF5B422321204665
:10474000336001F012FA204601F00BFA324B334984
:104750001B7998F800200978204601F014FA1920F6
:1047600001F040FF2121204601F0F8F9204601F038
:10477000EFF9204601F0FCF93880204601F0EBF912
:10478000DAF80030B7F8008098443368CAF800803F
:10479000013303F0010348BF5B423360DBF80030B4
:1047A0000135AB429BDCD9F8000003F08BFA1C4BBF
:1047B000044618680D4603F097FA1A4B002203F0DE
:1047C000EBFA02460B462046294603F061FD98B9F4
:1047D000404603F077FA144B044618680D4603F080
:1047E00083FA104B002203F0D7FA02460B4620460C
:1047F000294603F04DFD30B10A2001F0F3FEBDE87B
:10480000F84FFFF7A7BEBDE8F88F00BF44E60320CE
:1048100024E6032048E603202CE6032010E60320CC
:1048200038E603200000E83F3CE6032060E6032072
:1048300064E603205CE6032014E60320FFF73ABF9A
:104840000B4B002210B51A700A4B01221A7003F0AC
:104850007DF84FF0FF3301461A46074801F046F94C
:10486000BDE810400548062305220E2100F0F8BFE0
:1048700028E6032034E6032048E6032068E6032008
:104880002DE9F04F85B01F46BDF93880BDF83C30AA
:10489000A8EB0209A7EB010AB9F1000FB8BFC9F1F3
:1048A0000009BAF1000FB8BFCAF1000AD14583462A
:1048B0000C46154604DD3A462C4647460D469046C2
:1048C000BC4205DD2A464546904622463C461746F0
:1048D0003E1BB2B20092A8EB050282EAE271A1EBA4
:1048E000E271C6F3C03202FA86F64545B4BF012232
:1048F0004FF0FF32019176100292BC421CDCDBF8D3
:1049000000200393D145D2F81880C7BF294622461C
:104910002A4621465846C047019A039BB61AB1B2AF
:1049200036B2002E05DA029A1544009A56182DB2B6
:1049300036B2013424B2E0E705B0BDE8F08F70472D
:1049400010B404682469A4465DF8044B604730B491
:104950000468BDF808500295A46BA44630BC6047BB
:1049600030B40468BDF808500295E46BA44630BC2E
:10497000604770B4BDF90C50BDF810600468CDE913
:104980000356246CA44670BC60472DE9F3411C46D5
:104990000368BDF820805B6905461646013C344437
:1049A0000F4624B298472B68CDF8048000949C6A87
:1049B00028463B4632463946A0472B68DB6A2846E4
:1049C00002B0BDE8F04118472DE9F3411D460368E8
:1049D000BDF820805B69044617460E469847CDE92E
:1049E000007822686B1E3344956A20461BB23A4613
:1049F0003146A8472368DB6A204602B0BDE8F04193
:104A000018472DE9F3471E460368BDF928905B69F6
:104A1000BDF82C800C460546174698472644B442FC
:104A20002B680BDACDF80080D3F820A021464B4646
:104A30003A4628460134D04724B2F0E7DB6A2846DC
:104A400002B0BDE8F047184713B502680191B0F90C
:104A50000E100091146CB0F90C3000221146A047E2
:104A600002B010BD2DE9F74399421646BDF92870F2
:104A7000BDF82C90026880460D461C4613D1BE42FC
:104A8000C8BF3346CDF82890C4BF3E461F467B1CA6
:104A9000946B9B1B1BB2324629464046A44603B08A
:104AA000BDE8F0436047BE420AD19942C2BF0B46FF
:104AB00025461C46631CCDF82890D46B5B1BE9E7A8
:104AC00053699847CDE90079D8F8003040469F6A8D
:104AD000324623462946B847D8F80030DB6A4046BC
:104AE00003B0BDE8F04318472DE9F3471D460368BE
:104AF000BDF82C805B69BDF9289004460F46164628
:104B000098472368CDF80080D3F824A032462B467E
:104B100039462046D0472368CDF8008009F1FF329E
:104B20003244D3F824A039462B46204612B2D0474F
:104B30002368CDF80080D3F820A032464B46394692
:104B40002046D0476B1ED9192368CDF800801D6A16
:104B500020464B46324609B2A8472368DB6A204606
:104B600002B0BDE8F0471847704701F00303B0F901
:104B70000A208376C907B0F9083059BF8381C28102
:104B80008281C3817047000030B54281C281074AEB
:104B9000074D0181002481814FF0FF31C0E90512EA
:104BA0004460056004610477046230BD01010001C6
:104BB0007C8D0B002DE9F04F2DED028B91B0164648
:104BC000026ABDF874809DF878509DF87C4003918E
:104BD0001F46BDF8703004938346002A40F0C5801C
:104BE000B0F90C308B4240F34C81B0F90E30B34237
:104BF00040F34781062313FB0513002B40F341814B
:104C000006EBC403002B40F33C81037F1BB9AF2F9D
:104C100084BF0137FFB2DBF8003058465B69984724
:104C20000522099200220592984A07EB8703D318C0
:104C30000C93B3B20693059A0C9B9B5C0793ABB2A3
:104C40000B93BDF80C300893039B02FB05F919FA8E
:104C500083F90FFA89F308EE103A08230A93039BAD
:104C600002EB030A4FF000090FFA8AFA079ADBF801
:104C70000030D20752D5012D1FFA89F23ED1012C06
:104C80003CD19B6906991F46049B0A4412B25146C7
:104C90005846B84709F101034FFA83F9079B5B08AF
:104CA00007930A9B013B13F0FF030A93DED1059F94
:104CB00001377BB20593099B013B13F0FF03099376
:104CC000B9D1049B43450FD0012DDBF800303BD117
:104CD000012C39D10899CDF8008005311C6A324683
:104CE000082309B25846A047DBF80030DB6A584673
:104CF00011B0BDEC028BBDE8F04F1847069914FBCC
:104D000002F20A44049901910094DB6918EE101A2A
:104D10001F4612B22B465846B847BBE7049A424595
:104D2000B8D0012D1FFA89F207D1012C05D19B695A
:104D300006991F460A444346A8E70699CDF8048021
:104D400014FB02F20A44DFE70B9ACDF8048002EB71
:104D50008201089AE4000A4411460094DC69324654
:104D60002B4609B25846A047BEE7137A516812682D
:104D70000B92FF1AFFB201EBC70331F837200692FE
:104D80009A780992DA780C92012D93F9052093F91B
:104D900006A00A9201D8012C57D9BDF928300893F2
:104DA0000FFA8AF30793DBF8003058465B6998479F
:104DB000B3B24FF000080E931AFA86F3C146474685
:104DC0000F930C9B9F428FD2079B0E9A3B4403FB91
:104DD0000423002205920F9A1BB202EB070A08EE89
:104DE000103A0FFA8AFA4346099A0599914241D23C
:104DF0005A1CD2B25B070D9207D1069B06990B9AFB
:104E000001339BB212F80190069319F0800F12D073
:104E1000012DDBF80030BDF80C101AD1012C18D18F
:104E20000A9A9B691144059A11441E465246049BF6
:104E300009B25846B047059E0136F3B24FEA490918
:104E400005935FFA89F90D9BCEE70023CDE907337F
:104E5000A9E70598089A024402FB0511049ACDE9D6
:104E60000042DB6918EE102A1E4609B22B4658464E
:104E7000B047E0E7099B013798445FFA88F8FFB232
:104E80009FE711B0BDEC028BBDE8F08F73880B007B
:104E9000F0B5026A85B004460B46002A34D10A29CF
:104EA00008D1438A0282427E03EBC203638201205F
:104EB00005B0F0BD0D29FAD0E17E007E657E71B1AE
:104EC000B4F91060062111FB0061B4F90C60B14225
:104ED000C1BFB4F91210228201EBC5026282E28ADC
:104EE0000192A28A0092CDE90205B4F91220B4F928
:104EF00010102046FFF75EFE237E228A03EB430359
:104F000002EB43032382D2E70A2907D1002303825D
:104F1000417E927A438A01FB0233C7E70D29C6D04E
:104F2000157AA942C3D3517A9942C0D351685D1B07
:104F3000EDB201EBC505A87828B3E97819B3E17E95
:104F4000267E677E91B195F905100844B4F91010DA
:104F500006FB0011B4F90C00814207DD002020821D
:104F6000B4F91210927A02FB07126282E28A01926D
:104F7000A28A0092CDE90267B4F91220B4F91010A8
:104F80002046FFF717FE2979227E238A01FB023390
:104F9000B8E7012938BF0121017641767047002129
:104FA00080B202F09EBC012180B202F09ABC0021C6
:104FB00080B202F096BC012180B202F092BC0021C6
:104FC00080B202F08EBC012180B202F08ABC0000E7
:104FD00038B512B2044609B21D46FFF7D5FD0C4B99
:104FE00023609DF9183084F83D309DF9103084F825
:104FF0003E3000229DF9143084F83C2084F83F3084
:105000002264A4F84420A2646562204638BD00BF33
:10501000D48D0B002DE9F041DFF85880044698F854
:105020000000BFF35B8F0D4610F0010186B01646FD
:105030001F460BD140460591FFF740F8059928B16E
:105040000B4801F0EBFF4046FFF73DF89DF9343087
:1050500002939DF930303246CDE900732946044B66
:105060002046FFF7B5FF204606B0BDE8F08100BF3F
:10507000BCE60320B8E60320F8B5494F044690F992
:105080003E00002918BF0F460028164609DB012103
:1050900080B202F015FC94F93E00012180B202F0CA
:1050A00020FC94F93F00012180B202F009FC94F940
:1050B0003F00012180B202F014FC94F83C5085BB03
:1050C0000123606A84F82C50276384F8343084F814
:1050D0003560A66301F0ACFF94F93D0000285EDB6B
:1050E000012180B202F0ECFB94F93D00012180B275
:1050F00002F0F7FB642001F075FA94F93D000021FD
:1051000080B202F0EEFB642001F06CFA94F93D00ED
:10511000012180B202F0E5FBBDE8F840C82001F0B3
:1051200061BA012D20D194F92400294680B202F001
:10513000C7FB94F92400002180B202F0D2FB94F95D
:105140002600294680B202F0BBFB94F9260000211C
:1051500080B202F0C6FB94F925000028BCDB0021D8
:1051600080B202F0ADFBB7E794F92500012180B2CF
:1051700002F0A6FB94F92500012180B202F0B1FBF8
:1051800094F926000028A7DB012180B202F098FBE9
:1051900094F92600012180B202F0A3FB9CE7F8BD40
:1051A0000024F40090F83C3023B900F12801406A53
:1051B00001F06CBF704710B50446FFF7F3FF94F998
:1051C0003E00002805DBBDE81040002180B202F05F
:1051D00088BB10BD90F83C3013B9406A01F03CBF69
:1051E000704710B5044690F93E00002803DB01210A
:1051F00080B202F076FB2046FFF7ECFF10BD10B541
:10520000044690F92500002180B202F06AFB94F96F
:1052100025000121BDE8104080B202F062BB2DE9FB
:10522000F04105460E4614467AB190F83C304FEAFC
:105230001128CFB25BB94146686A01F095FF686AF0
:10524000394601F091FF013CF5D1BDE8F081012B19
:105250001ED1B046102718F4004F95F9240014D041
:10526000FFF7A9FE95F92600013FFFF79CFE4FEAE4
:10527000480895F92600BFB2FFF791FE1FFA88F89B
:10528000002FE8D1013CE4D1DFE7FFF790FEE9E72A
:10529000B845DAD02846FFF7B2FF013CFAD1D4E78F
:1052A0002DE9F3411D46BDF8203000930368BDF998
:1052B0002070D3F85480BDF82460ABB292B289B2AA
:1052C0000446C04705FB07F23146204602B0BDE860
:1052D000F041FFF7A4BF2DE9F341BDF92040002BB9
:1052E00046D0002C44D0002B05DA013111FA83F1AD
:1052F0005B4209B21BB2B0F90C608E4238DD002C63
:1053000005DA013212FA84F2644212B224B2B0F920
:105310000E5095422CDD01EB03081FFA88F808F1C6
:10532000FF3C0FFA8CFCBCF1000F21DB02EB040EFA
:105330001FFA8EFE0EF1FF373FB2002F18DB002957
:10534000BCBF0FFA88F30021002ABCBF0FFA8EF40D
:1053500000226645DCBF731A1BB2BD42D8BFAC1A2F
:10536000BDF82450D8BF24B2CDE90045FFF798FF1F
:1053700002B0BDE8F0812DE9F7438046BDF9287001
:10538000BDF82C900C4615461E46002B52D0002F1F
:1053900050D0002B05DA013414FA83F45E4224B2B3
:1053A00036B2B8F90C30A34244DD002F05DA0135DE
:1053B00015FA87F57F422DB23FB2B8F90E20AA4206
:1053C00038DD04EB060E1FFA8EFE0EF1FF3000B240
:1053D00000282FDB05EB070C1FFA8CFC0CF1FF31CA
:1053E00009B2002926DB002CBCBF0FFA8EF6002480
:1053F000002DBCBF0FFA8CF700258342DCBF1B1BBE
:105400001EB28A42D8F80030DCBF521B17B24046A9
:105410005B69984733464046CDE900792A462146E4
:10542000FFF73EFFD8F80030DB6A404603B0BDE826
:10543000F043184703B0BDE8F0832DE9F341171E90
:10544000BDF8208006460C461D4633DBB0F90E3011
:10545000BB422FDD002D2DD005DA013414FA85F47E
:105460006D4224B22DB2B6F90C30A34222DD61198F
:1054700089B24A1E12B2002A1CDB002CBCBF0DB23E
:1054800000249342DCBF1B1B1DB2336830465B69AE
:1054900098470123009330462B46CDF804803A46C6
:1054A0002146FFF7FDFE3368DB6A304602B0BDE8F7
:1054B000F041184702B0BDE8F0812DE9F3410F1E1D
:1054C000BDF82080064614461D4631DBB0F90C308D
:1054D000BB422DDD002D2BD005DA013414FA85F402
:1054E0006D4224B22DB2B6F90E30A34220DD61190F
:1054F00089B24A1E12B2002A1ADB002CBCBF0DB2C0
:1055000000249342DCBF1B1B1DB2336830465B692D
:1055100098473046CDE90058012322463946FFF727
:10552000BFFE3368DB6A304602B0BDE8F041184781
:1055300002B0BDE8F081002A73B527DBB0F90E4058
:10554000944223DD002B21D005DA013111FA83F1D9
:105550005B4209B21BB2B0F90C408C4216DDCE188A
:10556000B6B2751E2DB2002D10DB0029BCBF33B2C0
:105570000021AC42D8BF631ABDF8184001944FF027
:105580000104D8BF1BB20094FFF78AFE02B070BDC1
:1055900073B5002926DBB0F90C408C4222DD002BCC
:1055A00020D005DA013212FA83F25B4212B21BB24A
:1055B000B0F90E40944215DDD618B6B2751E2DB264
:1055C000002D0FDB002ABCBF33B20022AC42D8BF93
:1055D000A31ABDF81840D8BF1BB2CDE9003401238F
:1055E000FFF75EFE02B070BD70B590F83C30044627
:1055F0000D4623B9BDE87040406A01F0B5BD012BEE
:1056000018D108262B0694F9240010D5FFF7D3FCF7
:1056100094F92600FFF7C7FC013E94F92600FFF736
:10562000BEFC6D0016F0FF06EDB2EBD170BDFFF7CA
:10563000BEFCEDE7FFF7E3FDF8E713B5044690F98C
:105640003F000191FFF7BBFC20460199FFF7CCFF1B
:1056500094F93F0002B0BDE81040FFF7B4BC70B54C
:1056600003680D465B690446984755B194F84410A9
:105670002046FFF7E2FF23682046DB6ABDE8704062
:10568000184794F84510F3E770B590F83C3005469C
:105690000C464BB9090A406A01F066FD686AE1B23E
:1056A000BDE8704001F060BD012B18D11026230425
:1056B00095F9240010D5FFF77EFC95F92600FFF739
:1056C00072FC013E95F92600FFF769FC640016F0B4
:1056D000FF06A4B2EBD170BDFFF769FCEDE7FFF761
:1056E0008EFDF8E7F7B5002904461E4617DBB0F932
:1056F0000C308B4213DD002A11DBB0F90E309342DF
:105700000DDD0568012300936F6D92B289B2B84731
:105710003146204603B0BDE8F040FFF7B5BF03B007
:10572000F0BD2DE9F3410D1E044616461F4620DB51
:10573000B0F90C30AB421CDD002A1ADBB0F90E3098
:10574000934216DD03685B69984722680123009342
:10575000D2F85480A9B2B2B22046C047204639469A
:10576000FFF792FF2368DB6A204602B0BDE8F041F4
:10577000184702B0BDE8F08170B590F83C3004469F
:105780000D469BB9090E406A01F0EEFCC5F30741D6
:10579000606A01F0E9FCC5F30721606A01F0E4FCEE
:1057A000606AE9B2BDE8704001F0DEBC012B18D19F
:1057B0002026002D94F9240010DAFFF7FCFB94F961
:1057C0002600FFF7F0FB013E94F92600FFF7E7FB08
:1057D00016F0FF064FEA4505EBD170BDFFF7E7FB7A
:1057E000EDE7FFF70CFDF8E7704701F00301022930
:1057F00070B50446817624D0032925D0012990F87C
:105800004C3090F84D201DBFA0F84030A0F8422049
:10581000C025A0F8402004BFA0F84230A02523688E
:1058200020465B69984720463621FFF706FF204651
:105830002946FFF7D9FE23682046DB6ABDE87040A1
:10584000184700250564EAE7002303646025E6E7BE
:1058500010B550210446FEF722FC204610BD000082
:1058600010B5044600F09AF8014B2360204610BDA5
:10587000588E0B0070B500210446002500F0E5F8B5
:10588000074BE36020460749A4F84C5000F09AF813
:105890002368294620461B6BBDE87040184700BFAF
:1058A000F00040012C8E0B00704770B501F0030131
:1058B000022990F84C2090F84D308176044620D093
:1058C000032924D001291DBFA0F84020A0F84230B0
:1058D000C025A0F8422004BFA0F84030A0252368CE
:1058E00020465B69984720463621FFF7A6FE2046F2
:1058F0002946FFF779FE23682046DB6ABDE8704041
:105900001847A0F84020A0F842300025E7E7A0F8AB
:105910004220A0F840306025E1E70000064B002956
:1059200018BF0B4642F22101A0F844108364002204
:105930001946FFF7A1BB00BF0024F400F8B5B0F88A
:105940004070B0F84250BDF81860394413FA81F73E
:105950002A4416FA82F5013F044647EA0147013D11
:105960002A2145EA0245FFF768FE39462046FFF73F
:1059700003FF20462B21FFF760FE29462046FFF754
:10598000FBFE20462C21BDE8F840FFF756BE10B5BF
:1059900050210446FEF783FB204610BD13B5CDE928
:1059A00000230B46A02280210446FFF733FB044B63
:1059B000236020460023A4F84C3002B010BD00BF85
:1059C000B88E0B002DE9F04703680C465B6905466D
:1059D000984714F8017B97B32646284616F8021B11
:1059E000FFF72BFE94F8019009F07F084446B24679
:1059F000013CE4B2FF2C05D01AF8011B2846FFF742
:105A0000F3FDF5E795F93E00012180B201F069FF51
:105A100095F93E00002180B201F063FF19F0800F7C
:105A200006EB080408D016F80800FF2808BF4FF45A
:105A3000FA70013400F0D6FD013FFFB2CBE72B68CE
:105A40002846DB6ABDE8F047184738B503680D46BD
:105A50001B6D0021044698472DB129462046BDE81C
:105A60003840FFF7AFBF38BD704708B580680028E1
:105A700003DB002180B201F034FFBDE808400A20BA
:105A800000F0B0BD08B58068002803DB012180B2BA
:105A900001F027FFBDE808400A2000F0A3BD10B5C3
:105AA0001C210446FEF7FBFA204610BD13B50C4638
:105AB0000DF1060100F03DFBBDF80630236002B099
:105AC00010BD07B50DF1060100F022FBBDF8060080
:105AD0004EF6AC63C01A18BF4FF0FF3003B05DF84C
:105AE00004FB08B500F046F908BD00002DE9F843B5
:105AF0004FF05209C0E90012C0F80C9083600546CF
:105B00001C200F4616469846FEF7C5FA044680B19B
:105B10000A4B80F81090C0E90037002E00F1100306
:105B2000C0E902684761836103DB0121B0B201F083
:105B3000C7FE2C612846BDE8F88300BF188F0B0014
:105B400008B5006900F016F9003818BF012008BD3B
:105B5000006900F052B8006900F054B8006900F024
:105B60005BB90069022100F050BA006900F0A8BAE0
:105B700007B50DF10601006900F0DBFABDF806007B
:105B800003B05DF804FB006900F041B8F7B50446C6
:105B900015464068BDF8207049081E4601F0AEF871
:105BA0002B0A60688DF805508DF8043003680222D6
:105BB000DB6801A998470025AF42606805DD0368EE
:105BC000715D9B6898470135F6E7012101F09AF86D
:105BD000002003B0F0BD1FB58DF80F300123097808
:105BE00000930DF10F03FFF7D1FF05B05DF804FB43
:105BF000816901238622FFF7EEBF81694023872256
:105C0000FFF7E9BF816900238722FFF7E4BF10296E
:105C100070B50D4628BF1025102A164628BF10263D
:105C20000A29044613D80B2A28BFC723A1697F225B
:105C30002046FFF7D0FF013D731E45EA0313A1691B
:105C40002046DBB2BDE870408022FFF7C4BFC72307
:105C5000ECE71FB51C0A8DF80D300223097800937C
:105C600003AB8DF80C40FFF791FF04B010BD1FB5DA
:105C70001C0E8DF80C401C0C8DF80D408DF80F306B
:105C80001C0A04230978009303AB8DF80E40FFF73C
:105C90007DFF04B010BD2DE9F743044690461D4634
:105CA0004F084FEA122905266068394601F026F8A8
:105CB00060688DF804908DF80580036801A9DB68A1
:105CC000022298476068002101F01CF818B1013EDB
:105CD00016F0FF06E8D19DF828206068394601F0EB
:105CE0000AF8013D606803681B69984730B1606835
:105CF00003685B69984705F8010FF3E703B0BDE857
:105D0000F08313B5012409780094FFF7C4FF00382D
:105D100018BF0120404202B010BD13B530220C461E
:105D20000DF107038169FFF7ECFF9DF807306FEA7B
:105D3000131303F00103237002B010BD37B50546FD
:105D40000C460DF10701FFF7E8FFA9690DF1060305
:105D500031222846FFF7D5FF50B99DF806309DF84F
:105D6000072003F001039A4206BF0123237020702D
:105D700003B030BD73B500231C4E8DF807300446C8
:105D80002D25AAB216F8013BA16920460135FFF77F
:105D900022FF882DF5D12046FFF72FFF98259DF88B
:105DA000073063B90DF107012046013DFFF7C6FF3B
:105DB00015F0FF0517D0012000F014FCEFE7204696
:105DC000FFF716FF2046FFF71DFFA16909230822F0
:105DD0002046FFF700FFA16900230B222046FFF7B2
:105DE000FAFE02B070BD6FF00600FAE7348F0B00C8
:105DF00013B54B220DF107030C468169FFF781FFB4
:105E00009DF80730142B03D10123238002B010BD6D
:105E10000A2BFBD10223F8E773B50D460DF10601FD
:105E20000446FFF7E5FFBDF80630064653B1012BE7
:105E300052D1322D32D007D8142D25D0212D2BD080
:105E40000F2D12D001261CE0C82D31D0B5F5FA7FF8
:105E500038D0642DF6D140F2E123A1695E222046BC
:105E6000FFF7F7FE4FF4627306E01D23A1695E227F
:105E70002046FFF7EEFE2723A16961222046FFF7A7
:105E8000E8FE304602B070BD5123A1695E22204673
:105E9000FFF7DFFE6E23EFE7D623F6E74FF4D77365
:105EA000A1695E222046FFF7D4FE4FF4F473E3E7C6
:105EB00040F2E133A1695E222046FFF7CAFE40F2BC
:105EC0009643D9E740F29153A1695E222046FFF73D
:105ED000C0FE40F2C153CFE7642D27D00DD8212D4D
:105EE0001AD0322D1AD0142DACD11E23A1695E22F6
:105EF0002046FFF7AEFE2223BEE7C82D20D0B5F521
:105F0000FA7F9FD140F28F43A1695E222046FFF7BE
:105F1000A0FE40F2A443AFE76023B6E7AD23A1693A
:105F20005E222046FFF795FEC623A5E74FF4E673F1
:105F3000A1695E222046FFF78CFE4FF4F5739BE7C4
:105F400040F2D923A1695E222046FFF782FE4FF47A
:105F50003E7391E71FB51C460023ADF80C300223B9
:105F60000978009303ABFFF796FE30B99DF80C203B
:105F70009DF80D3003EB0223238004B010BD13B550
:105F80005E220DF106030C468169FFF7E3FFBDF8C1
:105F90000630B3F5D77F34D010D8512B2FD005D889
:105FA0001D2B28D01E2B2AD0002325E0AD2B28D076
:105FB000D62B01D0602BF7D121231DE040F2E13236
:105FC000934220D00CD840F2D92293421BD040F209
:105FD000E122934202D0B3F5E67FE5D164230BE0E2
:105FE00040F28F42934203D040F291529342DBD170
:105FF0004FF4FA7300E00F23238002B010BD142386
:10600000FAE73223F8E7C823F6E737B50D460DF176
:1060100006010446FFF7B3FF012D08D0022D2DD055
:10602000BDF806102046FFF7F7FE03B030BDA169AA
:1060300014234B222046FFF7CEFDA16907236022DF
:106040002046FFF7C8FDA169052363222046FFF71C
:10605000C2FDA169382369222046FFF7BCFD40F24A
:106060000573A16978222046FFF7F3FD40F206632D
:10607000A1697A222046FFF7ECFDD1E7A1690A2346
:106080004B222046FFF7A7FDA1690F23602220467F
:10609000FFF7A1FDA1690D2363222046FFF79BFDB9
:1060A000A169B82369222046FFF795FD40F60D73DC
:1060B000A16978222046FFF7CCFD40F60E63D7E7B2
:1060C00073B5DE220E460DF1060381690446FFF723
:1060D00041FFBDF80630C3F30903054606FB03F094
:1060E000ADF8063001F0EEFD07A3D3E9002301F07F
:1060F00053FE02F0EBF8A16903466C222046FFF73D
:10610000B6FD284602B070BD333333333333F13F2D
:1061100013B500230C46ADF8063081690DF1060376
:1061200040F20F12FFF716FFBDF80630238002B0D1
:1061300010BD13B596220C460DF106038169FFF7D9
:1061400009FFBDF80630238002B010BD08B5024B30
:106150001B685B6C019308BD4802030008B5024B45
:106160001B685B68019308BD1802030008B5024B69
:106170001B68DB68019308BD1802030008B5024BD9
:106180001B685B69019308BD1802030008B5024B48
:106190001B689B68019308BD2C02030008B5024BE5
:1061A0001B68DB68019308BD2C02030008B5024B95
:1061B0001B681B69019308BD2C02030008B5024B44
:1061C0001B68DB68019308BD2802030008B5024B79
:1061D0001B689B69019308BD2802030008B5024BA8
:1061E0001B68DB69019308BD2802030008B5024B58
:1061F0001B681B6A019308BD2802030008B5024B07
:106200001B685B6A019308BD2802030008B5024BB6
:106210001B689B6A019308BD2802030008B5024B66
:106220001B68DB6A019308BD2802030008B5024B16
:106230001B681B6B019308BD2802030008B5024BC5
:106240001B685B6B019308BD2802030008B5024B75
:106250001B681B6C019308BD2802030008B5024BA4
:106260001B681B6D019308BD2802030008B5024B93
:106270001B685B69019308BD6402030008B5024B0B
:106280001B689B68019308BD6802030008B5024BB8
:106290001B68DB68019308BD6802030008B5024B68
:1062A0001B681B68019308BD3002030008B5024B50
:1062B0001B685B69019308BD3002030008B5024BFF
:1062C0001B68DB69019308BD3002030008B5024B6F
:1062D0001B681B6A019308BD3002030008B5024B1E
:1062E0001B685B6A019308BD3002030008B5024BCE
:1062F0001B68DB6B019308BD3002030008B5024B3D
:106300001B681B6C019308BD3002030008B5024BEB
:106310001B685B6C019308BD3002030008B5024B9B
:106320001B68DB68019308BD3C02030008B5024B03
:106330001B681B69019308BD3C02030008B5024BB2
:106340001B685B69019308BD3C02030008B5024B62
:106350001B689B69019308BD3C02030008B5024B12
:106360001B68DB69019308BD3C02030008B5024BC2
:106370001B681B6A019308BD3C02030008B5024B71
:106380001B689B6A019308BD3C02030008B5024BE1
:106390001B681B6C019308BD3C02030008B5024B4F
:1063A0001B681B68019308BD4C02030008B5024B33
:1063B0001B685B68019308BD4C02030008B5024BE3
:1063C0001B681B69019308BD4C02030008B5024B12
:1063D0001B685B69019308BD4C02030008B5024BC2
:1063E0001B689B69019308BD4C02030008B5024B72
:1063F0001B68DB69019308BD4C02030008B5024B22
:106400001B681B6A019308BD4C02030008B5024BD0
:106410001B685B6B019308BD6002030008B5024B6B
:106420001B685B68019308BD2002030008B5024B9E
:106430001B685B69019308BD2002030008B5024B8D
:106440001B68DB6C019308BD2002030008B5024BFA
:106450001B685B6D019308BD2002030008B5034B68
:106460001B68D3F88830019308BD000020020300A8
:1064700008B5034B1B68D3F89430019308BD0000A6
:106480002002030008B5024B1B685B69019308BD3D
:106490004402030008B5024B1B681B6A019308BD48
:1064A0004402030008B5024B1B68DB6B019308BD77
:1064B0004402030008B5024B1B685B68019308BDEA
:1064C0004002030008B5024B1B689B68019308BD9E
:1064D0004002030008B5024B1B68DB68019308BD4E
:1064E0004002030008B5024B1B681B69019308BDFD
:1064F0004002030008B5024B1B685B69019308BDAD
:106500004002030008B5024B1B689B69019308BD5C
:106510004002030008B5024B1B68DB69019308BD0C
:106520004002030008B5024B1B681B6A019308BDBB
:106530004002030008B5024B1B681B6B019308BDAA
:106540004002030008B5024B1B685B6B019308BD5A
:106550004002030008B5024B1B681B6C019308BD89
:106560004002030008B5024B1B685B6C019308BD39
:106570004002030008B5024B1B681B68019308BD6D
:106580001C02030008B5024B1B685B68019308BD41
:106590001C02030008B5024B1B689B68019308BDF1
:1065A0001C02030008B5024B1B68DB6A019308BD9F
:1065B0001C02030008B5024B1B681B6B019308BD4E
:1065C0001C02030008B5024B1B681B6C019308BD3D
:1065D0001C02030008B5024B1B685B6C019308BDED
:1065E0001C0203000021FFF721BF10B58368044699
:1065F0000BB901F011FAC3689847A3681BB10322D5
:1066000021462046984720461021BDE81040FDF75E
:1066100046BD10B58368044613B10322014698476E
:10662000204610BD13B50B460246D0E900016C466A
:1066300084E8030093E8030082E8030094E8030081
:1066400083E8030002B010BD024800230360FFF797
:106650007DBD00BFC4E6032070470020704710B521
:1066600010210446FDF71BFD204610BD08B5FFF7BD
:10667000F6FF08BD30B500224FF69C74026084809E
:106680008D888C800C68858004600A6030BD10B5F0
:1066900004460068FFF776FF204610BD38B5C46891
:1066A000F4B12378022B03D104F10C00FFF7EFFFC4
:1066B000656835B12846FFF7ACFF10212846FDF785
:1066C000EEFCA56835B12846FFF7A3FF1021284648
:1066D000FDF7E5FC20461421BDE83840FDF7DFBC9E
:1066E00038BD0B6803604B68436013B15A680132D0
:1066F0005A60704737B5044668460D46FFF7F1FF0C
:10670000009B019A23606260002301A8019300931B
:10671000FDF706FD35B1281DFDF702FD08212846CD
:10672000FDF7BDFC204603B030BD826810B50AB944
:1067300001F072F9BDE81040C368184708B5006859
:1067400000F11001FFF7F1FF08BD826810B50AB92A
:1067500001F062F9BDE81040C368184708B5006849
:1067600000F11001FFF7F1FF08BD000038B500236C
:106770000446036010200D46FDF78DFC28B101236F
:10678000C0E90133024B0360C5602060204638BD7C
:10679000988F0B0038B5002383608B6804460D4644
:1067A0002BB102229847EB68E360AB68A3602046F8
:1067B00038BD0000F0B589B004686846FFF75AFF9D
:1067C0004FF00203D4E84F2F002A03D1C4E8413F21
:1067D0000029F7D125D104F10C0569462846FFF7B9
:1067E00049FFBFF35B8F01236370002004F10803AE
:1067F000BFF35B8F53E8006F43E80002002AF9D132
:10680000BFF35B8F6EB1FFF719FE78B129463046B2
:10681000FFF78BFF3046FFF7FCFE10213046FDF7F7
:106820003EFC6846FFF733FF09B0F0BD314602A8D1
:10683000FFF7B0FFE068B4F9105008B101F058FF5D
:1068400006901020ADF81C50FDF725FC0546E8B178
:10685000002787601820FDF71EFC044688B101461A
:10686000876002A8FFF7DEFE049BA268A360059B79
:10687000049206A9E268E36004F110000592FFF7B4
:10688000F9FE084BEB60084B2C60AB6006A8FFF7E5
:10689000FEFE02A8FFF7BDFE002229460348FFF7CF
:1068A000D5FDB7E73D670B00C1690B00EB650B0039
:1068B0002DE9F04F8BB005469DF850A00F4690464D
:1068C0009946FFF7DFFD07AE834638BB4FF62E73C0
:1068D000059005A93046ADF81830FFF7CBFE14201F
:1068E000FDF7D9FB044648B1022303700123C0E938
:1068F00001BB437031460C30FFF7BCFE28462146F1
:1069000040F8044BFFF732FF3046FFF7C0FE05A802
:10691000FFF7BDFE28460BB0BDE8F08F0C23002426
:106920001420CDE908440793FDF7B5FB014618B1E3
:10693000C0E901440470447004A80391FFF716FFF6
:106940001E4B08930820FDF7A6FB044610B103A9CF
:10695000FFF7C7FE00965FFA8AF34A46414638467B
:106960000994FFF797FDB8B9039B5B7803F0FF022A
:1069700093B94FF69C7305A903A80592ADF818309A
:10698000FFF718FF05A8FFF782FE05A80999FFF792
:10699000B1FE06A8FDF7C4FB03A905A8FFF7A1FEF9
:1069A000059B069A2B606A60002306A80693059350
:1069B000FDF7B6FB04A8FDF7B3FBABE73D6A0B00A0
:1069C000012AF8B5054603D10B6803600020F8BD25
:1069D000022A10D0032AF9D10468002CF6D004F161
:1069E0001000FFF754FE2046FFF713FE1821204643
:1069F000FDF755FBEAE718200E68FDF74CFB04464F
:106A000050B13146FFF7C6FE3069B6F9147008B1CF
:106A100001F06EFE2061A7822C60D7E738B5002315
:106A200083608B6804460D462BB102229847EB68C1
:106A3000E360AB68A360204638BD0000F0B589B0C4
:106A400004460D4601A81146FFF754FEA4B124B236
:106A50001DB1284601F04CFE054601A803A9039587
:106A6000ADF81040FFF7A6FE03A8FFF710FE02A83E
:106A7000FDF756FB09B0F0BD019D0123D5E84F2F6E
:106A8000002A03D1C5E8413F0029F7D1EFD12B738C
:106A9000BFF35B8F6B702B1DBFF35B8F53E8006FF1
:106AA00043E80042002AF9D1BFF35B8F002EDED00D
:106AB0002046FFF7C3FC074660B105F10C013046E4
:106AC000FFF743FE3046FFF7A4FD10213046FDF7E7
:106AD000E6FACCE7314603A8FFF7A0FF2B7B8DF841
:106AE0001C301020FDF7D7FA0546D0B1876014207E
:106AF000FDF7D1FA044678B18760014603A8FFF795
:106B000091FD059BA268A360069B0592E268E36085
:106B10009DF81C3006922374064BEB60064B2C60EC
:106B2000AB6003A8FFF775FD002229460348FFF775
:106B30008DFCC7E75D670B00416B0B00EB650B003D
:106B4000012A70B5044603D10B680360002070BDB4
:106B5000022A0CD0032AF9D10468002CF6D0204672
:106B6000FFF757FD14212046FDF799FAEEE71420B0
:106B70000E68FDF790FA054620B13146FFF74EFF4B
:106B8000337C2B742560E1E7002240681146FFF753
:106B9000C9BC002240681146FFF7D4BC40680022FF
:106BA000FFF7C8BC4068002281F00101FFF7B2BCCA
:106BB000002340681A461946FFF7A4BC002340682A
:106BC0001A461946FFF796BC002240681146FFF7A7
:106BD00089BC002240681146FFF774BC406800225F
:106BE0000221FFF777BC002340681A46FFF762BC1A
:106BF000024B03225A60024A1A607047C8E603201B
:106C0000B48F0B007047F8B5064615460C468F1832
:106C1000BC4206D0336814F8011B9B683046984785
:106C2000F6E72846F8BD007C0022FFF7DFBA007CBB
:106C30000021FFF7E3BA007C0021FFF7E7BA007CF0
:106C40000021FFF7EBBA007C0021FFF7EFBA10B587
:106C500014210446FDF723FA204610BD38B504463A
:106C600015464FF47A730022C4E90123094B2174BD
:106C7000084623602946FFF7E9FABF3008D16B695F
:106C8000DB0705D56868FFF77DFCE868FFF77AFC4D
:106C9000204638BDF08F0B000023007C1A461946B1
:106CA000FFF78CBA7FB500221423CDE90122ADF89D
:106CB00004300B788DF808304B680393CB6804934D
:106CC000007C0B7A059301A9FFF7C8FA07B05DF8BD
:106CD00004FB1FB5003B8DF800104FF064010391D9
:106CE00018BF0123694601928DF80830FFF7DAFFDB
:106CF00005B05DF804FB0123FFF7EBBF007C002229
:106D0000FFF764BA007C0022FFF768BA704710B53D
:106D100018210446FDF7C3F9204610BDF0B5037DE8
:106D2000062B8DB00E4600F104074FF0000412D080
:106D300000F1080515F8011D0A22304600F043F95C
:106D4000AF42044419D0002CF4D02E21304600F07C
:106D500037F90444EEE72F236A4639460A208DF8B6
:106D60000040FFF783FA684601F0DFFC3368024613
:106D7000DB68694630469847044620460DB0F0BDB2
:106D800010B5054B0446112240F8043B002101F0E8
:106D900071FC204610BD00BF18900B000346074A47
:106DA00010B543F8042B01F1100251F8044B43F8DD
:106DB000044B9142F9D10A781A7010BD18900B005B
:106DC00010B59DF8084044EA032343EA024242EA30
:106DD000016104234160037510BD000007B5064B37
:106DE0000360CB7800938B784A780978FFF7E8FF47
:106DF00003B05DF804FB00BF18900B00014B024A82
:106E00001A607047D0E6032024900B0000234068EE
:106E10001A46FFF74FBB406800220221FFF75ABB1A
:106E2000002240681146FFF74DBB00224068114622
:106E3000FFF758BB002340681A461946FFF75ABBB4
:106E4000002340681A461946FFF75CBB40680021E2
:106E5000FFF780BB40680021FFF784BB4068002239
:106E600081F00101FFF756BB40680022FFF762BBCB
:106E7000002240681146FFF765BB002240681146BA
:106E8000FFF750BB2DE9F04395B014460D46074679
:106E9000FFF776FF00211C220DA8009101F0EAFB0C
:106EA00040230C9320466B460CAA0021FFF7EEF915
:106EB000044600284BD1024601216868FFF712FB07
:106EC0000221804622466868FFF70CFB009E81463F
:106ED0002146002E3BD0002939D17368022B03D004
:106EE0000A2B11D0F669F4E7B8F1000FFAD07169F6
:106EF00006A8043107ADFFF771FF0FCD3C1D0FC48D
:106F00002B6823704146EDE7B9F1000FEAD07469B0
:106F1000102201A801F0AEFB06238DF8143001AD5C
:106F200004F108031834186859682A4603C2083364
:106F3000A3421546F7D101A906A807ADFFF72EFF1A
:106F40000FCD3C1D0FC42B6823704946CAE700983B
:106F5000FFF794F9384615B0BDE8F083024B034AB9
:106F60001A6000225A607047D4E6032030900B006C
:106F7000F8B506460D468F180024BD420CD0336884
:106F800015F8011B9B6830469847031E01DB1C4423
:106F9000F3E7002C08BF1C462046F8BD13B5044695
:106FA000084659B1019101F0C0FB23680199DB68E3
:106FB0000246204602B0BDE81040184702B010BD9E
:106FC00003689B68184730B58BB00023012A8DF801
:106FD000243098BF0A2209AC0D46B1FBF2F101FB47
:106FE000125303F0FF03092B94BF30333733DBB266
:106FF000AA4204F8013DEFD92146FFF7CFFF0BB0BD
:1070000030BD0000014B00229A607047DCE603208F
:107010000021FFF77BB90021FFF770B910B50446D6
:1070200008462170FFF74AF900236360204610BD2F
:1070300013B504460078FFF7EEFF58B920780190A9
:107040004FF6FF71FFF72AF9019802B0BDE8104032
:10705000FFF7DEBF02B010BD0078FFF7D9BF000018
:10706000400830B51860002418688842E5B206D997
:107070000134082C02D040081860F5E70725024BC0
:107080005B5D137030BD00BF64900B002DE9F043D1
:1070900006468FB000780C46FFF7BDFF00281BDBCB
:1070A00035781422002109A801F0E4FA0B2300220C
:1070B00009A92846ADF82430FFF710F99DF82D30C6
:1070C00013B19DF82C5055B10027B946B84601259B
:1070D00023795DB1C3B100200FB0BDE8F083DDF8C6
:1070E00030809DF834909DF83570F1E7002B35D154
:1070F000A368434508D18DF820908DF82170BDF824
:107100002020A3899A42E6D00023A1688DF80F3091
:107110000A9804AB0DF10F02FFF7A2FF217985B9A0
:1071200089B9A36843450ED38DF820908DF821705E
:10713000BDF82020A3899A4205D1049B434502D182
:10714000C9E70029F9D100230193637B00939DF8DF
:107150000F20237B3078FFF7C9F8BCE7CDE9005555
:107160002B462A460121F5E708B50078FFF79EF87F
:10717000C0B208BD2DE9F14F57EC106B80460C46AC
:1071800010EE100A00220023394601F077F828B1EA
:1071900007F100431F462D2304F8013B00234FF065
:1071A00001090A22D9B2884503D902FB09F9013342
:1071B000F8E7484600F086FD32463B4600F0ECFD1D
:1071C00006460F4601F0BAF88A4605468B4600F09F
:1071D000ADFD02460B463046394600F025FC144B07
:1071E000002201F05FF810B101354AF1000B4A4668
:1071F0002846D317594601F089F801231546214640
:107200000A2200F048FAB8F1000F0ED0204601F033
:107210008CFA2E23211823540A2243460131284692
:1072200001B0BDE8F04F00F036BA01B0BDE8F08F14
:107230000000E03F10B504460068FFF7A3F92046C0
:1072400010BD10B50446006808B1FFF79BF9002394
:10725000C4E90133236010BD38B504460D4600680B
:107260000131FFF797F910B1C4E90005012038BDDD
:1072700010B50368044623B143688B4201D3012053
:1072800010BD2046FFF7E8FF0028F9D0A368002BC7
:10729000F5D122681370F2E737B50D461146019219
:1072A0000446FFF7E5FF019A28B92046FFF7C9FF1A
:1072B000204603B030BDA2602946206801F0CCF919
:1072C0002268A3680021D154F2E7002313B5C0E976
:1072D000003304468360037341B10846019101F015
:1072E00024FA019902462046FFF7D6FF204602B055
:1072F00010BD884210B5044605D00B682BB18A68D2
:107300001946FFF7C9FF204610BDFFF79AFFFAE7BD
:1073100010B500230446C0E9003383600373FFF710
:10732000E8FF204610BD13B5044659B10846019147
:1073300001F0FBF9019902462046FFF7ADFF204618
:1073400002B010BDFFF77DFFF9E710B504468AB023
:107350000023C4E90033A3602373084601A900F0A9
:10736000BFF901A92046FFF7DEFF20460AB010BD95
:1073700030B5044600238BB0C4E90033A360237307
:1073800010EE100ACDB200F0AFFC41EC100B01A9D9
:107390002846FFF7EFFE01A92046FFF7C4FF20466D
:1073A0000BB030BD70B505460E4609B9002070BD62
:1073B0006AB1846814442146FFF75AFF0028F5D0CB
:1073C0002868AB683146184401F08AF9AC600120A6
:1073D000EDE710B58A6809680446FFF7E3FF10B9C6
:1073E0002046FFF72EFF204610BD13B5044629B9ED
:1073F0002046FFF726FF204602B010BD0846019147
:1074000001F093F9019902462046FFF7CBFF0028CF
:10741000EED0F0E7054B02221A60054B054A9A6050
:107420000020C3E90000FEF7F9BF00BFF8E6032023
:10743000ECE603200000FFFF024B1A68024B1A60C3
:10744000704700BF84E50320FCE6032070474174C9
:10745000704708B5007CFEF791FF20EAE07008BD98
:1074600008B5007CFEF762FF20EAE07008BD08B5B1
:10747000007CFEF76BFF40EAE07008BD08B5007CB9
:10748000FEF75CFF40EAE07008BD007CFEF766BFD7
:1074900037B5457C04462DB1207C03B0BDE83040B3
:1074A000FEF73CBF007C0191FEF768FF00280199C0
:1074B000F2DC284603B030BD10B514210446FCF7B9
:1074C000EEFD204610BD000010B54FF47A7304465F
:1074D000084611460022C4E90123044B236001231E
:1074E00020746374FEF752FF204610BD90900B008D
:1074F000417470477047704708B50021007CFEF763
:107500006DFF40EAE07008BD08B50121007CFEF780
:1075100065FF40EAE07008BD08B5007CFEF756FF45
:1075200020EAE07008BD08B5007CFEF747FF20EABE
:10753000E07008BD13B50446007C0191FEF746FFDC
:107540000028019901DC607C20B1207CFEF74EFF11
:1075500020EAE07002B010BD007CFEF74FBF10B50E
:1075600014210446FCF79BFD204610BD10B54FF4D6
:107570007A73044608460021C4E90113044B2360D2
:107580000123207463741146FEF708FF204610BDE6
:10759000C0900B00007C0022FEF708BF10B514223B
:1075A0000446002101F066F8204610BD10B50F4CCE
:1075B00088B003A8FFF7F2FF2178BFF35B8F11F0CB
:1075C00001010FD120460191FCF778FD019948B1E6
:1075D00003AA0748FFF7CAFF2046FCF774FD0548D9
:1075E00001F034F8024808B010BD00BF00E70320E6
:1075F00004E70320F5740B00002240681146FEF7F3
:1076000071BF002240681146FEF78CBF002240681F
:107610001146FEF797BF40680022FEF78BBF406817
:10762000002281F00101FEF775BF002340681A4671
:107630001946FEF767BF002340681A461946FEF751
:1076400059BF002240681146FEF73CBF4068002247
:107650000221FEF73FBF002340681A46FEF72ABF0B
:10766000024B04225A60024A1A60704718E703204E
:10767000F0900B0010B5044601F057F801382318BC
:107680002046834206D90278197800F8011B03F8D6
:107690000129F6E710BD70B50C46911E22291DD8B0
:1076A000254630B9234430229D4210D205F8012BE3
:1076B000FAE7B0FBF2F602FB1600C1B2092894BF4C
:1076C00030315731C9B205F8011B3046E9E70023D4
:1076D00020462B70FFF7CEFF204670BD0020FCE750
:1076E00038B5031E0C4615460EDAB3F1004F4FF0C5
:1076F0002D0214BF5842184601230A702A46194425
:10770000FFF7C9FF204638BD0123F9E7014B186098
:10771000704700BF88E5032008B50B4B43B1FFF766
:1077200045FF03681B699847002801DDAFF300801F
:10773000064B43B100F04AF903681B6998470028DB
:1077400001DDAFF3008008BD000000000000000074
:1077500008B5FFF7E1FFFEF711FD014B186008BD0A
:1077600028E703200548064A064908B5121A00F022
:1077700073FF054B054A1A6008BD00BF00F40320E3
:1077800004F40320EC910B0000F403201E1C279A44
:1077900007B5002300931A466FF07701FEF768FEE5
:1077A00003B05DF804FB000007B543880A2B08D03E
:1077B000502B0BD1094B1B684BB103B05DF804EBA8
:1077C0001847FFF7E5FF03B05DF804FB00230093C3
:1077D0001A466FF07701FEF74BFEF4E724E703202B
:1077E00010B512480021FEF7F5FE114B1A68114B37
:1077F0009A42114B0CBF012200221A7001D0FFF7F0
:10780000B1FFFEF7ABFC044600F03CFF0B4B13B19D
:107810002046AFF3008000210848FEF743FEBDE894
:10782000104007480021FEF719BE00BF0D770B007E
:1078300000F403201E1C279A20E70320000000000C
:10784000A9770B00232813B502D9002002B010BD80
:10785000A0F10B03022B1AD8174C2178BFF35B8FD2
:1078600011F001010BD120460191FCF727FC019991
:1078700028B11248FFF7D2FB2046FCF724FC0F4B3F
:107880001878FEF723FD0028DFD10120DEE701286C
:1078900009D800F05BF80021007CFEF7CFFC80F0F7
:1078A0000100C0B2D2E709380128EED800F08EF806
:1078B000007CFEF75BFDF2E7B8E60320BCE60320A0
:1078C000232838B504460D460AD8FF2908D0FFF70B
:1078D000B9FF28B129462046BDE83840FEF756BC1E
:1078E00038BD38B504460D46FEF758FCFF2810D0C9
:1078F000062804D84D2323FA00F0C30709D42046F4
:10790000FFF7A0FF28B129462046BDE83840FEF722
:107910004DBC38BD7047000038B50A4B03600123E9
:10792000044643610849202000F074F82025606077
:107930000549A560284600F06DF8C4E90305204616
:1079400038BD00BF1800010024910B0030B50E4D6A
:107950002978BFF35B8F11F0010487B011D128465D
:10796000FCF7ACFB68B16846FFF7D6FF6A462146D4
:107970000648FFF773F92846FCF7A5FB044800F01A
:1079800065FE024807B030BD2CE7032030E7032036
:1079900015790B007047000038B5044614252A46B7
:1079A000002100F067FE25804025074925812846F3
:1079B000258200F02FF804496060284600F02AF87C
:1079C000E060204638BD00BF24910B0030B50E4D5D
:1079D0002978BFF35B8F11F0010487B011D12846DD
:1079E000FCF76CFB68B101A8FFF7D6FF01AA21469E
:1079F0000648FFF769FD2846FCF765FB044800F0E0
:107A000025FE024807B030BD44E7032048E70320C5
:107A100095790B00FCF741BB08B5FEF7C3FD0000EC
:107A200081F0004102E000BF83F0004330B54FEA2F
:107A300041044FEA430594EA050F08BF90EA020F9C
:107A40001FBF54EA000C55EA020C7FEA645C7FEA2F
:107A5000655C00F0E2804FEA5454D4EB5555B8BF52
:107A60006D420CDD2C4480EA020281EA030382EAC3
:107A7000000083EA010180EA020281EA0303362D55
:107A800088BF30BD11F0004F4FEA01314FF4801C28
:107A90004CEA113102D0404261EB410113F0004F3A
:107AA0004FEA03334CEA133302D0524263EB4303F1
:107AB00094EA050F00F0A780A4F10104D5F1200E8F
:107AC0000DDB02FA0EFC22FA05F2801841F10001EA
:107AD00003FA0EF2801843FA05F359410EE0A5F1BE
:107AE00020050EF1200E012A03FA0EFC28BF4CF0EF
:107AF000020C43FA05F3C01851EBE37101F00045A5
:107B000007D54FF0000EDCF1000C7EEB00006EEBB1
:107B10000101B1F5801F1BD3B1F5001F0CD349083B
:107B20005FEA30004FEA3C0C04F101044FEA445292
:107B300012F5800F80F09A80BCF1004F08BF5FEA19
:107B4000500C50F1000041EB045141EA050130BDF9
:107B50005FEA4C0C404141EB0101013C28BFB1F50B
:107B6000801FE9D291F0000F04BF01460020B1FA56
:107B700081F308BF2033A3F10B03B3F120020CDA29
:107B80000C3208DD02F1140CC2F10C0201FA0CF007
:107B900021FA02F10CE002F11402D8BFC2F1200C6C
:107BA00001FA02F120FA0CFCDCBF41EA0C01904022
:107BB000E41AA2BF01EB0451294330BD6FEA04046B
:107BC0001F3C1CDA0C340EDC04F11404C4F1200256
:107BD00020FA04F001FA02F340EA030021FA04F368
:107BE00045EA030130BDC4F10C04C4F1200220FABF
:107BF00002F001FA04F340EA0300294630BD21FAFD
:107C000004F0294630BD94F0000F83F4801306BFC2
:107C100081F480110134013D4EE77FEA645C18BFB6
:107C20007FEA655C29D094EA050F08BF90EA020F4D
:107C300005D054EA000C04BF1946104630BD91EA45
:107C4000030F1EBF0021002030BD5FEA545C05D148
:107C50004000494128BF41F0004130BD14F5800487
:107C60003CBF01F5801130BD01F0004545F0FE41FB
:107C700041F470014FF0000030BD7FEA645C1ABF30
:107C8000194610467FEA655C1CBF0B46024650EA67
:107C9000013406BF52EA033591EA030F41F4002193
:107CA00030BD00BF90F0000F04BF0021704730B519
:107CB0004FF4806404F132044FF000054FF00001EE
:107CC00050E700BF90F0000F04BF0021704730B5AF
:107CD0004FF4806404F1320410F0004548BF404284
:107CE0004FF000013EE700BF42004FEAE2014FEAD9
:107CF00031014FEA02701FBF12F07F4393F07F4FB4
:107D000081F06051704732F07F4208BF704793F0B6
:107D10007F4F04BF41F40021704730B54FF46074C9
:107D200001F0004521F000411CE700BF50EA0102CC
:107D300008BF704730B54FF000050AE050EA010275
:107D400008BF704730B511F0004502D5404261EBE5
:107D500041014FF4806404F132045FEA915C3FF426
:107D6000D8AE4FF003025FEADC0C18BF03325FEAC3
:107D7000DC0C18BF033202EBDC02C2F1200300FA74
:107D800003FC20FA02F001FA03FE40EA0E0021FA99
:107D900002F11444BDE600BF70B54FF0FF0C4CF487
:107DA000E06C1CEA11541DBF1CEA135594EA0C0F39
:107DB00095EA0C0F00F0DEF82C4481EA030621EA74
:107DC0004C5123EA4C5350EA013518BF52EA0335AF
:107DD00041F4801143F4801338D0A0FB02CE4FF061
:107DE0000005E1FB02E506F00042E0FB03E54FF091
:107DF0000006E1FB03569CF0000F18BF4EF0010E89
:107E0000A4F1FF04B6F5007F64F5407404D25FEA84
:107E10004E0E6D4146EB060642EAC62141EA555137
:107E20004FEAC52040EA5E504FEACE2EB4F1FD0C79
:107E300088BFBCF5E06F1ED8BEF1004F08BF5FEAF7
:107E4000500E50F1000041EB045170BD06F00046A9
:107E500046EA010140EA020081EA0301B4EB5C0456
:107E6000C2BFD4EB0C0541EA045170BD41F480114E
:107E70004FF0000E013C00F3AB8014F1360FDEBF73
:107E8000002001F0004170BDC4F10004203C35DA4F
:107E90000C341BDC04F11404C4F1200500FA05F3D2
:107EA00020FA04F001FA05F240EA020001F0004273
:107EB00021F0004110EBD37021FA04F642EB0601E9
:107EC0005EEA430E08BF20EAD37070BDC4F10C0413
:107ED000C4F1200500FA04F320FA05F001FA04F2D7
:107EE00040EA020001F0004110EBD37041F10001C3
:107EF0005EEA430E08BF20EAD37070BDC4F12005CE
:107F000000FA05F24EEA020E20FA04F301FA05F235
:107F100043EA020321FA04F001F0004121FA04F2DD
:107F200020EA020000EBD3705EEA430E08BF20EAAD
:107F3000D37070BD94F0000F0FD101F000464000E7
:107F400041EB010111F4801F08BF013CF7D041EA69
:107F5000060195F0000F18BF704703F0004652006D
:107F600043EB030313F4801F08BF013DF7D043EA3E
:107F70000603704794EA0C0F0CEA135518BF95EAF4
:107F80000C0F0CD050EA410618BF52EA4306D1D17B
:107F900081EA030101F000414FF0000070BD50EA9A
:107FA000410606BF1046194652EA430619D094EA24
:107FB0000C0F02D150EA013613D195EA0C0F05D10E
:107FC00052EA03361CBF104619460AD181EA030162
:107FD00001F0004141F0FE4141F470014FF000001A
:107FE00070BD41F0FE4141F4780170BD70B54FF0B5
:107FF000FF0C4CF4E06C1CEA11541DBF1CEA135535
:1080000094EA0C0F95EA0C0F00F0A7F8A4EB050416
:1080100081EA030E52EA03354FEA013100F088800D
:108020004FEA03334FF0805545EA131343EA1263D6
:108030004FEA022245EA111545EA10654FEA00268B
:108040000EF000419D4208BF964244F1FD0404F544
:10805000407402D25B084FEA3202B61A65EB0305A0
:108060005B084FEA32024FF480104FF4002CB6EB5D
:10807000020E75EB030E22BFB61A754640EA0C00DD
:108080005B084FEA3202B6EB020E75EB030E22BF1D
:10809000B61A754640EA5C005B084FEA3202B6EB5E
:1080A000020E75EB030E22BFB61A754640EA9C001D
:1080B0005B084FEA3202B6EB020E75EB030E22BFED
:1080C000B61A754640EADC0055EA060E18D04FEAAB
:1080D000051545EA16754FEA06164FEAC30343EA4B
:1080E00052734FEAC2025FEA1C1CC0D111F4801F18
:1080F0000BD141EA00014FF000004FF0004CB6E711
:1081000011F4801F04BF01430020B4F1FD0C88BFAF
:10811000BCF5E06F3FF6AFAEB5EB030C04BFB6EBBA
:10812000020C5FEA500C50F1000041EB045170BDAD
:108130000EF0004E4EEA113114EB5C04C2BFD4EBDA
:108140000C0541EA045170BD41F480114FF0000E5E
:10815000013C90E645EA060E8DE60CEA135594EADA
:108160000C0F08BF95EA0C0F3FF43BAF94EA0C0FDD
:108170000AD150EA01347FF434AF95EA0C0F7FF452
:1081800025AF104619462CE795EA0C0F06D152EAA6
:1081900003353FF4FDAE1046194622E750EA41068A
:1081A00018BF52EA43067FF4C5AE50EA41047FF49B
:1081B0000DAF52EA43057FF4EBAE12E74FF0FF3C00
:1081C00006E000BF4FF0010C02E000BF4FF0010CD1
:1081D0004DF804CD4FEA410C7FEA6C5C4FEA430C4A
:1081E00018BF7FEA6C5C1BD001B050EA410C0CBF99
:1081F00052EA430C91EA030F02BF90EA020F0020FB
:10820000704710F1000F91EA030F58BF994208BF61
:1082100090422CBFD8176FEAE37040F0010070471E
:108220004FEA410C7FEA6C5C02D150EA013C07D175
:108230004FEA430C7FEA6C5CD6D152EA033CD3D0C0
:108240005DF8040B704700BF8446104662468C46BA
:108250001946634600E000BF01B5FFF7B7FF0028ED
:1082600048BF10F1000F01BD4DF808EDFFF7F4FF16
:108270000CBF012000205DF808FB00BF4DF808EDA1
:10828000FFF7EAFF34BF012000205DF808FB00BFC4
:108290004DF808EDFFF7E0FF94BF012000205DF8E6
:1082A00008FB00BF4DF808EDFFF7CEFF94BF01209B
:1082B00000205DF808FB00BF4DF808EDFFF7C4FF94
:1082C00034BF012000205DF808FB00BF4A0011D236
:1082D00012F5001211D20DD56FF47873B3EB625220
:1082E0000ED44FEAC12343F0004343EA505323FA2C
:1082F00002F070474FF00000704750EA013002D1A1
:108300004FF0FF3070474FF00000704753B94AB943
:10831000002908BF00281CBF4FF0FF314FF0FF308D
:1083200000F092B9ADF1080C6DE904CE00F024F82C
:10833000DDF804E0DDE9022304B07047D0B50C4B52
:10834000002206460F46FFF727FDFFF7BFFF044652
:10835000FFF7A8FC074B0022FFF71EFD02460B4665
:1083600030463946FFF760FBFFF7B0FF2146D0BD2E
:108370000000F03D0000F0412DE9F047089D044663
:108380008E46002B4DD18A42944669D9B2FA82F2C8
:1083900052B101FA02F3C2F1200120FA01F10CFA04
:1083A00002FC41EA030E94404FEA1C48210CBEFB3C
:1083B000F8F61FFA8CF708FB16E341EA034306FBC5
:1083C00007F199420AD91CEB030306F1FF3080F054
:1083D0001F81994240F21C81023E63445B1AA4B2A1
:1083E000B3FBF8F008FB103344EA034400FB07F743
:1083F000A7420AD91CEB040400F1FF3380F00A8184
:10840000A74240F207816444023840EA0640E41B78
:1084100000261DB1D4400023C5E900433146BDE824
:10842000F0878B4209D9002D00F0EF800026C5E9C6
:10843000000130463146BDE8F087B3FA83F6002EDE
:108440004AD18B4202D3824200F2F980841A61EB56
:10845000030301209E46002DE0D0C5E9004EDDE774
:1084600002B9FFDEB2FA82F2002A40F09280A1EB5C
:108470000C014FEA1C471FFA8CFE0126200CB1FBB1
:10848000F7F307FB131140EA01410EFB03F08842AA
:1084900008D91CEB010103F1FF3802D2884200F237
:1084A000CB804346091AA4B2B1FBF7F007FB1011C9
:1084B00044EA01440EFB00FEA64508D91CEB040467
:1084C00000F1FF3102D2A64500F2BB800846A4EBC2
:1084D0000E0440EA03409CE7C6F12007B34022FAAD
:1084E00007FC4CEA030C20FA07F401FA06F31C43DC
:1084F000F9404FEA1C4900FA06F3B1FBF9F8200CE9
:108500001FFA8CFE09FB181140EA014108FB0EF02E
:10851000884202FA06F20BD91CEB010108F1FF3A7E
:1085200080F08880884240F28580A8F1020861448A
:10853000091AA4B2B1FBF9F009FB101144EA014198
:1085400000FB0EFE8E4508D91CEB010100F1FF3443
:108550006CD28E456AD90238614440EA0840A0FBDB
:108560000294A1EB0E01A142C846A64656D353D0B1
:108570005DB1B3EB080261EB0E0101FA07F722FAD5
:1085800006F3F1401F43C5E9007100263146BDE8FE
:10859000F087C2F12003D8400CFA02FC21FA03F361
:1085A000914001434FEA1C471FFA8CFEB3FBF7F0E2
:1085B00007FB10360B0C43EA064300FB0EF69E4207
:1085C00004FA02F408D91CEB030300F1FF382FD2A0
:1085D0009E422DD9023863449B1B89B2B3FBF7F648
:1085E00007FB163341EA034106FB0EF38B4208D921
:1085F0001CEB010106F1FF3816D28B4214D9023E62
:108600006144C91A46EA004638E72E46284605E77F
:108610000646E3E61846F8E64B45A9D2B9EB020850
:1086200064EB0C0E0138A3E74646EAE7204694E7E0
:108630004046D1E7D0467BE7023B614432E7304613
:1086400009E76444023842E7704700BF002301464F
:108650001A46184600F072B80A44914200F1FF33FE
:1086600000D1704710B511F8014B03F8014F91424A
:10867000F9D110BD02440346934200D1704703F87C
:10868000011BF9E738B5104B1D68AB6B0446B3B955
:108690001820FDF76FFF0246A86320B90B4B0C486A
:1086A0004221FDF78FFF0B490B4BC0E900130B4B29
:1086B00083600B23838100210120C2E90401AB6B9D
:1086C00000221C615A6138BD88E5032025910B000A
:1086D0003C910B000E33CDAB34126DE6ECDE0500A1
:1086E000034611F8012B03F8012B002AF9D170473A
:1086F000024B0146186800F003B800BF88E503206C
:1087000037B5044608460D4600F00FF8421C1146E6
:1087100020460192FDF74EFF044618B1019A294602
:10872000FFF79AFF204603B030BD034613F8012B34
:10873000002AFBD1181A0138704700002DE9F843D0
:10874000DFF8B8800646D8F800001F460D4691466F
:1087500000F056F8254B1C6834B9254C1C60254B9D
:1087600013B11B68C4F8883063681F2B07DDD8F885
:10877000000000F047F84FF0FF30BDE8F8834EB33B
:10878000D4F8880088B91C4B23B9D8F8000000F051
:1087900038F8F0E74FF48470FDF7ECFE0028F4D0D1
:1087A0000023C0E94033C4F88800636840F8239090
:1087B00001229A4000EB8301D0F800311343C0F846
:1087C0000031022EC1F8807002BFD0F8043113438B
:1087D000C0F804316368D8F800005A1C02336260A4
:1087E00044F8235000F00EF80020C6E7E8E7032025
:1087F0005CE703200000000075650B00ECE503203A
:10880000704770477047000021400B005D400B002F
:1088100085400B0089400B000000000043616C6C38
:10882000206F6E2070757265207669727475616C48
:1088300000202620005A6F6E65735F433A20004384
:108840006F756E746572206973206F6E6C696E65EA
:10885000004920616D20726561647900436F756E17
:108860007465723A2000456E74727920004578690B
:1088700074200000000000003E5B4F5B3E3E6B4FEB
:108880006B3E1C3E7C3E1C183C7E3C181C577D57A2
:108890001C1C5E7F5E1C00183C1800FFE7C3E7FF4E
:1088A0000018241800FFE7DBE7FF30483A060E26E1
:1088B00029792926407F050507407F05253F5A3C39
:1088C000E73C5A7F3E1C1C08081C1C3E7F14227F7C
:1088D00022145F5F005F5F06097F017F0066899554
:1088E0006A606060606094A2FFA29408047E04083D
:1088F00010207E201008082A1C08081C2A08081EC0
:10890000101010100C1E0C1E0C30383E3830060EA5
:108910003E0E06000000000000005F00000007009F
:108920000700147F147F14242A7F2A12231308645B
:108930006236495620500008070300001C224100FF
:108940000041221C002A1C7F1C2A08083E0808003F
:1089500080703000080808080800006060002010DF
:108960000804023E5149453E00427F400072494999
:1089700049462141494D331814127F10274545457A
:10898000393C4A494931412111090736494949369B
:10899000464949291E000014000000403400000030
:1089A0000814224114141414140041221408020162
:1089B0005909063E415D594E7C1211127C7F49498E
:1089C00049363E414141227F4141413E7F4949492B
:1089D000417F090909013E414151737F0808087F21
:1089E00000417F41002040413F017F081422417F28
:1089F000404040407F021C027F7F0408107F3E41C0
:108A000041413E7F090909063E4151215E7F091916
:108A10002946264949493203017F01033F4040402E
:108A20003F1F2040201F3F4038403F63140814631D
:108A300003047804036159494D43007F41414102D9
:108A400004081020004141417F040201020440401B
:108A5000404040000307080020545478407F2844D9
:108A600044383844444428384444287F38545454C3
:108A70001800087E090218A4A49C787F08040478D2
:108A800000447D40002040403D007F10284400000D
:108A9000417F40007C047804787C080404783844E2
:108AA000444438FC1824241818242418FC7C080496
:108AB0000408485454542404043F44243C404020B7
:108AC0007C1C2040201C3C4030403C442810284462
:108AD0004C9090907C4464544C4400083641000013
:108AE00000770000004136080002010204023C2623
:108AF00023263C1EA1A161123A4040207A385454EA
:108B0000555921555579412254547842215554786C
:108B10004020545579400C1E527212395555555902
:108B2000395454545939555454580000457C410027
:108B300002457D420001457C407D1211127DF028E6
:108B40002528F07C545545002054547C547C0A0957
:108B50007F4932494949323A4444443A324A4848C2
:108B6000303A4141217A3A42402078009DA0A07DD0
:108B70003D4242423D3D4040403D3C24FF2424488C
:108B80007E4943662B2FFC2F2BFF0929F620C08836
:108B90007E090320545479410000447D4130484807
:108BA0004A32384040227A007A0A0A727D0D193121
:108BB0007D2629292F28262929292630484D40207D
:108BC000380808080808080808382F10C8ACBA2F59
:108BD000102834FA00007B000008142A1422221402
:108BE0002A14085500550055AA55AA55AAFF55FF45
:108BF00055FF000000FF00101010FF00141414FFB8
:108C0000001010FF00FF1010F010F0141414FC00FE
:108C10001414F700FF0000FF00FF1414F404FC1408
:108C20001417101F10101F101F1414141F00101001
:108C300010F0000000001F101010101F1010101076
:108C4000F010000000FF101010101010101010FF96
:108C500010000000FF140000FF00FF00001F1017AD
:108C60000000FC04F414141710171414F404F40096
:108C700000FF00F714141414141414F700F714145C
:108C800014171410101F101F141414F4141010F0E3
:108C900010F000001F101F0000001F14000000FC57
:108CA000140000F010F01010FF10FF141414FF1443
:108CB0001010101F00000000F010FFFFFFFFFFF07A
:108CC000F0F0F0F0FFFFFF0000000000FFFF0F0FCB
:108CD0000F0F0F3844443844FC4A4A4A347E02029B
:108CE0000606027E027E0263554941633844443CD5
:108CF00004407E201E2006027E020299A5E7A59967
:108D00001C2A492A1C4C7201724C304A4D4D30309D
:108D100048784830BC625A463D3E494949007E0188
:108D200001017E2A2A2A2A2A44445F444440514AA7
:108D3000444040444A51400000FF0103E080FF00EE
:108D40000008086B6B083612362436060F090F062A
:108D5000000018180000001010003040FF01010052
:108D60001F01011E00191D1712003C3C3C3C000075
:108D700000000000000000000000000000000000F3
:108D800000000000914E0B00716F0B00A5400B001E
:108D90003F490B0041490B0073490B004F490B0041
:108DA00061490B0081480B003F490B006B4B0B00E6
:108DB000694B0B008B490B00C9490B00034A0B00A0
:108DC000494A0B00654A0B00E94A0B00000000000D
:108DD000000000000000000000000000914E0B00A9
:108DE000716F0B0023570B00B7510B00E5560B00BA
:108DF000D7520B0091550B0037550B0081480B00E3
:108E0000E3510B006B4B0B005F560B00BB540B0088
:108E10003B540B0077530B00494A0B00654A0B008B
:108E2000E94A0B00A5400B00A5400B000901809604
:108E30001180FF3A81550A3601082A04000000F02B
:108E40002B04000000F021800A13800A2980FF0013
:108E50000000000000000000E9570B0051580B0013
:108E6000914E0B00716F0B0023570B00B7510B0095
:108E7000E5560B00D7520B0091550B0037550B00F0
:108E800081480B00E3510B00EB570B005F560B00C2
:108E9000BB540B003B540B0077530B00494A0B00AB
:108EA000654A0B00E94A0B001D590B003D590B00A8
:108EB0000000000000000000A9580B008F590B00B3
:108EC000914E0B00716F0B0023570B00B7510B0035
:108ED000E5560B00D7520B0091550B0037550B0090
:108EE00081480B00E3510B00AB580B005F560B00A1
:108EF000BB540B003B540B0077530B00494A0B004B
:108F0000654A0B00E94A0B001D590B003D590B0047
:108F10000000000000000000E35A0B00C35A0B00E1
:108F2000AD5A0B00695A0B009F5A0B00855A0B0073
:108F30006B5A0B0000010101020002080008100139
:108F40000100000000FF000F0000000000200B00E7
:108F500000020A2100000500000000C8000038FFE0
:108F6000010008000001DB0F01F10D01680080081D
:108F7000B8000000000F8900000000000000010F91
:108F80000D0E0E000002C7FF9B0000000100000054
:108F9000000000000000000059660B005F660B0037
:108FA0009D660B006D660B005B660B000000000009
:108FB00000000000E76B0B00DD6B0B00D36B0B00B8
:108FC000C96B0B00BD6B0B00B16B0B004D6E0B0042
:108FD000556E0B00A56B0B009D6B0B00936B0B008C
:108FE000896B0B00856E0B00000000000000000084
:108FF000056C0B004F6C0B00276C0B00076C0B0013
:109000002F6C0B00376C0B003F6C0B00476C0B0098
:1090100000000000000000001D6D0B000D6D0B0036
:109020000F6D0B0061707000000000000000000078
:109030000D6E0B00176E0B00216E0B002B6E0B00DC
:10904000356E0B00416E0B004D6E0B00556E0B0024
:109050005D6E0B00696E0B00716E0B007B6E0B007A
:10906000856E0B00000810182028303825592D2552
:109070006D2D25645425483A254D3A2553257A000F
:1090800061736374696D65000000000000000000FA
:109090004D740B00B9740B0091740B00716F0B00D1
:1090A00061740B007D740B006F740B008B740B00EC
:1090B0004F740B0053740B00000000000000000010
:1090C000F7740B005F750B0035750B00716F0B00AB
:1090D00027750B00F9740B0009750B0059750B000F
:1090E00019750B00F1740B00000000000000000077
:1090F00057760B004D760B0043760B00F9750B008D
:1091000037760B002B760B004D6E0B00556E0B0067
:109110001F760B0017760B000D760B0003760B0005
:10912000856E0B00005245454E54206D616C6C6F8E
:109130006320737563636565646564002F746D7087
:109140002F6A656E6B696E732D4743432D31302D49
:10915000706970656C696E652D34385F32303230FD
:10916000313132345F313630363138303633392FA1
:109170007372632F6E65776C69622F6E65776C69A9
:10918000622F6C6962632F7374646C69622F726101
:109190006E642E630000000041480B0049660B001E
:1091A000F16B0B00FD6D0B005D6F0B0005700B008C
:1091B00015740B0039740B0061760B000000000081
:1091C000040000001400000003000000474E55009A
:1091D000E921EFCD27F73CD617CDCB47C4DAC10D37
:0491E00027A96D6BE3
:0891E40094F1FF7F010000007F
:0491EC00000000007F
:1091F00080900B008CE503200000000000000000C0
:10920000000000000000000000000000000000005E
:10921000000000000000000000000000000000004E
:10922000000000000000000000000000000000003E
:10923000000000000000000000000000000000002E
:10924000000000000000000000000000000000001E
:0C9250000000000000000000ECE703201C
:10925C00FFFFFFFF00000102030405060708090ACF
:10926C000B0C0D0E0F101112131415161718191ACA
:08927C001B1C1D1E1F20280011
:0492840078563412D2
:04000003B0004020E9
:00000001FF
