:02000004085F93
:10A0000000A05F08FCFF5F080000060020000501BB
:08A010000401B6140000000079
:10A018000E480F4908B5884205D00E4A824202D040
:10A028000D4B121A98470D480D4A00210D4B121A74
:10A0380098470D480D49884205D00D4A824202D002
:10A04800054B121A9847014808BD00BF48AD0710D4
:10A058002CF75F08B8AD07102D0D1110B8AD07101B
:10A06800E8AF0710A10E111060A93F0290A05F0889
:0CA07800FCFF3F0219A05F080000000080
:08A084003C12E079010000002C
:08A090007CA05F0848F63F02C6
:10A0980081F0004102E000BF83F0004330B54FEA91
:10A0A80041044FEA430594EA050F08BF90EA020FFE
:10A0B8001FBF54EA000C55EA020C7FEA645C7FEA91
:10A0C800655C00F0E2804FEA5454D4EB5555B8BFB4
:10A0D8006D420CDD2C4480EA020281EA030382EA25
:10A0E800000083EA010180EA020281EA0303362DB7
:10A0F80088BF30BD11F0004F4FEA01314FF4801C8A
:10A108004CEA113102D0404261EB410113F0004F9B
:10A118004FEA03334CEA133302D0524263EB430352
:10A1280094EA050F00F0A780A4F10104D5F1200EF0
:10A138000DDB02FA0EFC22FA05F2801841F100014B
:10A1480003FA0EF2801843FA05F359410EE0A5F11F
:10A1580020050EF1200E012A03FA0EFC28BF4CF050
:10A16800020C43FA05F3C01851EBE37101F0004506
:10A1780007D54FF0000EDCF1000C7EEB00006EEB13
:10A188000101B1F5801F1BD3B1F5001F0CD349089D
:10A198005FEA30004FEA3C0C04F101044FEA4452F4
:10A1A80012F5800F80F09A80BCF1004F08BF5FEA7B
:10A1B800500C50F1000041EB045141EA050130BD5B
:10A1C8005FEA4C0C404141EB0101013C28BFB1F56D
:10A1D800801FE9D291F0000F04BF01460020B1FAB8
:10A1E80081F308BF2033A3F10B03B3F120020CDA8B
:10A1F8000C3208DD02F1140CC2F10C0201FA0CF069
:10A2080021FA02F10CE002F11402D8BFC2F1200CCD
:10A2180001FA02F120FA0CFCDCBF41EA0C01904083
:10A22800E41AA2BF01EB0451294330BD6FEA0404CC
:10A238001F3C1CDA0C340EDC04F11404C4F12002B7
:10A2480020FA04F001FA02F340EA030021FA04F3C9
:10A2580045EA030130BDC4F10C04C4F1200220FA20
:10A2680002F001FA04F340EA0300294630BD21FA5E
:10A2780004F0294630BD94F0000F83F4801306BF24
:10A2880081F480110134013D4EE77FEA645C18BF18
:10A298007FEA655C29D094EA050F08BF90EA020FAF
:10A2A80005D054EA000C04BF1946104630BD91EAA7
:10A2B800030F1EBF0021002030BD5FEA545C05D1AA
:10A2C8004000494128BF41F0004130BD14F58004E9
:10A2D8003CBF01F5801130BD01F0004545F0FE415D
:10A2E80041F470014FF0000030BD7FEA645C1ABF92
:10A2F800194610467FEA655C1CBF0B46024650EAC9
:10A30800013406BF52EA033591EA030F41F40021F4
:10A3180030BD00BF90F0000F04BF0021704730B57A
:10A328004FF4806404F132044FF000054FF000014F
:10A3380050E700BF90F0000F04BF0021704730B510
:10A348004FF4806404F1320410F0004548BF4042E5
:10A358004FF000013EE700BF42004FEAE2014FEA3A
:10A3680031014FEA02701FBF12F07F4393F07F4F15
:10A3780081F06051704732F07F4208BF704793F018
:10A388007F4F04BF41F40021704730B54FF460742B
:10A3980001F0004521F000411CE700BF50EA01022E
:10A3A80008BF704730B54FF000050AE050EA0102D7
:10A3B80008BF704730B511F0004502D5404261EB47
:10A3C80041014FF4806404F132045FEA915C3FF488
:10A3D800D8AE4FF003025FEADC0C18BF03325FEA25
:10A3E800DC0C18BF033202EBDC02C2F1200300FAD6
:10A3F80003FC20FA02F001FA03FE40EA0E0021FAFB
:10A4080002F11444BDE600BF70B54FF0FF0C4CF4E8
:10A41800E06C1CEA11541DBF1CEA135594EA0C0F9A
:10A4280095EA0C0F00F0DEF82C4481EA030621EAD5
:10A438004C5123EA4C5350EA013518BF52EA033510
:10A4480041F4801143F4801338D0A0FB02CE4FF0C2
:10A458000005E1FB02E506F00042E0FB03E54FF0F2
:10A468000006E1FB03569CF0000F18BF4EF0010EEA
:10A47800A4F1FF04B6F5007F64F5407404D25FEAE6
:10A488004E0E6D4146EB060642EAC62141EA555199
:10A498004FEAC52040EA5E504FEACE2EB4F1FD0CDB
:10A4A80088BFBCF5E06F1ED8BEF1004F08BF5FEA59
:10A4B800500E50F1000041EB045170BD06F000460B
:10A4C80046EA010140EA020081EA0301B4EB5C04B8
:10A4D800C2BFD4EB0C0541EA045170BD41F48011B0
:10A4E8004FF0000E013C00F3AB8014F1360FDEBFD5
:10A4F800002001F0004170BDC4F10004203C35DAB1
:10A508000C341BDC04F11404C4F1200500FA05F333
:10A5180020FA04F001FA05F240EA020001F00042D4
:10A5280021F0004110EBD37021FA04F642EB06014A
:10A538005EEA430E08BF20EAD37070BDC4F10C0474
:10A54800C4F1200500FA04F320FA05F001FA04F238
:10A5580040EA020001F0004110EBD37041F1000124
:10A568005EEA430E08BF20EAD37070BDC4F120052F
:10A5780000FA05F24EEA020E20FA04F301FA05F297
:10A5880043EA020321FA04F001F0004121FA04F23F
:10A5980020EA020000EBD3705EEA430E08BF20EA0F
:10A5A800D37070BD94F0000F0FD101F00046400049
:10A5B80041EB010111F4801F08BF013CF7D041EACB
:10A5C800060195F0000F18BF704703F000465200CF
:10A5D80043EB030313F4801F08BF013DF7D043EAA0
:10A5E8000603704794EA0C0F0CEA135518BF95EA56
:10A5F8000C0F0CD050EA410618BF52EA4306D1D1DD
:10A6080081EA030101F000414FF0000070BD50EAFB
:10A61800410606BF1046194652EA430619D094EA85
:10A628000C0F02D150EA013613D195EA0C0F05D16F
:10A6380052EA03361CBF104619460AD181EA0301C3
:10A6480001F0004141F0FE4141F470014FF000007B
:10A6580070BD41F0FE4141F4780170BD70B54FF016
:10A66800FF0C4CF4E06C1CEA11541DBF1CEA135596
:10A6780094EA0C0F95EA0C0F00F0A7F8A4EB050478
:10A6880081EA030E52EA03354FEA013100F088806F
:10A698004FEA03334FF0805545EA131343EA126338
:10A6A8004FEA022245EA111545EA10654FEA0026ED
:10A6B8000EF000419D4208BF964244F1FD0404F5A6
:10A6C800407402D25B084FEA3202B61A65EB030502
:10A6D8005B084FEA32024FF480104FF4002CB6EBBF
:10A6E800020E75EB030E22BFB61A754640EA0C003F
:10A6F8005B084FEA3202B6EB020E75EB030E22BF7F
:10A70800B61A754640EA5C005B084FEA3202B6EBBF
:10A71800020E75EB030E22BFB61A754640EA9C007E
:10A728005B084FEA3202B6EB020E75EB030E22BF4E
:10A73800B61A754640EADC0055EA060E18D04FEA0C
:10A74800051545EA16754FEA06164FEAC30343EAAC
:10A7580052734FEAC2025FEA1C1CC0D111F4801F79
:10A768000BD141EA00014FF000004FF0004CB6E772
:10A7780011F4801F04BF01430020B4F1FD0C88BF11
:10A78800BCF5E06F3FF6AFAEB5EB030C04BFB6EB1C
:10A79800020C5FEA500C50F1000041EB045170BD0F
:10A7A8000EF0004E4EEA113114EB5C04C2BFD4EB3C
:10A7B8000C0541EA045170BD41F480114FF0000EC0
:10A7C800013C90E645EA060E8DE60CEA135594EA3C
:10A7D8000C0F08BF95EA0C0F3FF43BAF94EA0C0F3F
:10A7E8000AD150EA01347FF434AF95EA0C0F7FF4B4
:10A7F80025AF104619462CE795EA0C0F06D152EA08
:10A8080003353FF4FDAE1046194622E750EA4106EB
:10A8180018BF52EA43067FF4C5AE50EA41047FF4FC
:10A828000DAF52EA43057FF4EBAE12E74FF0FF3C61
:10A8380006E000BF4FF0010C02E000BF4FF0010C32
:10A848004DF804CD4FEA410C7FEA6C5C4FEA430CAB
:10A8580018BF7FEA6C5C1BD001B050EA410C0CBFFA
:10A8680052EA430C91EA030F02BF90EA020F00205C
:10A87800704710F1000F91EA030F58BF994208BFC3
:10A8880090422CBFD8176FEAE37040F00100704780
:10A898004FEA410C7FEA6C5C02D150EA013C07D1D7
:10A8A8004FEA430C7FEA6C5CD6D152EA033CD3D022
:10A8B8005DF8040B704700BF8446104662468C461C
:10A8C8001946634600E000BF01B5FFF7B7FF00284F
:10A8D80048BF10F1000F01BD4DF808EDFFF7F4FF78
:10A8E8000CBF012000205DF808FB00BF4DF808ED03
:10A8F800FFF7EAFF34BF012000205DF808FB00BF26
:10A908004DF808EDFFF7E0FF94BF012000205DF847
:10A9180008FB00BF4DF808EDFFF7CEFF94BF0120FC
:10A9280000205DF808FB00BF4DF808EDFFF7C4FFF5
:10A9380034BF012000205DF808FB00BF4A0011D297
:10A9480012F5001211D20DD56FF47873B3EB625281
:10A958000ED44FEAC12343F0004343EA505323FA8D
:10A9680002F070474FF00000704750EA013002D102
:10A978004FF0FF3070474FF00000704753B94AB9A5
:10A98800002908BF00281CBF4FF0FF314FF0FF30EF
:10A9980000F0A0B9ADF1080C6DE904CE00F024F880
:10A9A800DDF804E0DDE9022304B07047D0B50022E9
:10A9B8000B4B06460F46FFF727FDFFF7BFFF044680
:10A9C800FFF7A8FC0022074BFFF71EFD02460B46C7
:10A9D80030463946FFF760FBFFF7B0FF2146D0BD90
:10A9E8000000F03D0000F0412DE9F04F099D0446BC
:10A9F8000F46002B48D18A42944661D9B2FA82F3B5
:10AA080043B1C3F120019F4002FA03FC9C4020FAA5
:10AA180001F10F434FEA1C411FFA8CFE220CB7FBD1
:10AA2800F1F601FB167706FB0EF042EA0742904268
:10AA380008D91CEB020206F1FF3702D2904200F25D
:10AA480037813E46121AA4B2B2FBF1F001FB102284
:10AA580000FB0EFE44EA0244A64508D91CEB040498
:10AA680000F1FF3202D2A64500F21C81104640EAEE
:10AA78000640A4EB0E0400261DB1DC400023C5E906
:10AA880000433146BDE8F08F8B4209D9002D00F014
:10AA9800FD800026C5E9000130463146BDE8F08F4B
:10AAA800B3FA83F6002E4BD18B42C0F0F28082427B
:10AAB80040F2EF803046002DE3D0C5E90047E0E7DB
:10AAC80002B9FFDEB2FA82F3002B40F09D80891AAA
:10AAD8004FEA124E97B20126200CB1FBFEF20EFB94
:10AAE800121140EA014107FB02F088420FD91CEB22
:10AAF800010102F1FF382CBF4FF001094FF00009A6
:10AB0800884203D9B9F1000F00F0CF804246091AF4
:10AB1800A4B2B1FBFEF00EFB101100FB07F744EAEC
:10AB28000144A74208D91CEB040400F1FF3102D20A
:10AB3800A74200F2B4800846E41B40EA02409BE7C3
:10AB4800C6F12007B34001FA06F422FA07FCF940DF
:10AB5800B2404CEA030C20FA07F34FEA1C491C43A5
:10AB68001FFA8CFE00FA06F3200CB1FBF9F809FB7A
:10AB7800181140EA014108FB0EF088420FD91CEB7E
:10AB8800010108F1FF3A2CBF4FF0010B4FF0000B09
:10AB9800884203D9BBF1000F00F08D80D046091A16
:10ABA800A4B2B1FBF9F009FB101100FB0EFE44EA58
:10ABB80001418E4507D91CEB010100F1FF3401D298
:10ABC8008E457FD8204640EA0840A1EB0E01A0FB45
:10ABD800029841454C46C64602D306D14B4504D29D
:10ABE8000138B9EB020468EB0C0E002D70D01A1B6B
:10ABF80061EB0E0122FA06F301FA07F7F14000268D
:10AC08001F43C5E900713CE702FA03FCC3F12000C9
:10AC180001FA03F221FA00F64FEA1C4E24FA00F179
:10AC28001FFA8CF79C401143B6FBFEF00A0C0EFB92
:10AC3800106642EA064200FB07F696420ED91CEB64
:10AC4800020200F1FF382CBF4FF001094FF0000954
:10AC5800964202D9B9F1000F31D04046921B89B211
:10AC6800B2FBFEF60EFB162241EA024106FB07F292
:10AC78008A4207D91CEB010106F1FF3801D28A424A
:10AC880023D84646891A46EA004625E72E4628462E
:10AC9800F7E6841A61EB030301201F460BE76444BF
:10ACA800023849E764440238E1E6023A61442EE793
:10ACB800023E6244C6E6A8F1020861446FE7023822
:10ACC8006244CBE7023861447DE7023E6144D9E73C
:10ACD8002E46D6E6704700BF034613F8012B002A1C
:10ACE800FBD1181A0138704770B503F0CBFD002569
:10ACF800054E064CA41BA408AC4200D170BD56F802
:10AD0800043B98470135F7E7D8FF3F02FCFF3F02B5
:10AD180000F048B908B500F025FCBDE8084003F08C
:10AD280069BD02F03FBC02F03DBC02F049BC000026
:10AD38000C2008B5024A034902F000FBFEE700BFF9
:10AD48007DD73F0258F63F020078B0FA80F04009FC
:10AD58007047012303707047002138B5114D28460C
:10AD6800E97600F005FD4FF0FF334FF01E12242165
:10AD78002846C5E9042300F09EFF0B4B1C68002CF5
:10AD88000EDA2D21284603F05FF961420A220548B0
:10AD980003F05DF9BDE8384040F2DC5002F064BCD5
:10ADA8002146F3E730AE071008AE071038B504683F
:10ADB80005467CB16368013B63605BB92368204644
:10ADC8009B689847A368013BA3601BB9236820468A
:10ADD800DB689847284638BDE722A7232DE9F04FBE
:10ADE800DFF8B491DFF8B4B1C9E9002308235F4A5A
:10ADF8004FF4FA7091B01360CBF8003002F034FCD5
:10AE0800002314229A465A4DDFF89481594F5A4E1E
:10AE18005A495B4C2B60C8F800303B6033800A60AD
:10AE2800564B1A6852455CDD3721204601F02BFD50
:10AE3800204601F024FD4D4999F800309BF8002088
:10AE48000978204601F02DFD322002F00DFC322158
:10AE5800204601F011FD204601F008FD204601F0D2
:10AE680015FD3080204601F004FDD8F80020338815
:10AE780037211344C8F800302B682046013303F00B
:10AE8800010348BF5B422B6001F0FDFC204601F046
:10AE9800F6FC364999F804309BF8002009782046DA
:10AEA80001F0FFFC322002F0DFFB3221204601F0E6
:10AEB800E3FC204601F0DAFC204601F0E7FC308094
:10AEC800204601F0D6FC3A6833880AF1010A134497
:10AED8003B602B68013303F0010348BF5B422B60E2
:10AEE8009EE7D8F80030274D93FBF2F300EE103AB6
:10AEF800B8EEC00A244B062183ED000A3B6804A87B
:10AF080093FBF2F307EE903AF8EEE77AC5ED007A94
:10AF180003F072FA04A908A803F03EFA1B4908A82E
:10AF280003F0A7FA044695ED000A06210CA803F0E1
:10AF380063FA0CA9204603F090FA154B02681B78B7
:10AF480014498DF8003002A83C2302F0F3FC03A852
:10AF5800FFF72CFF0CA803F0B1F908A803F0AEF92D
:10AF680004A803F0ABF911B0BDE8F08FD8AD071015
:10AF7800ECAD07102CAE07100CAE071024AE07106E
:10AF880010AE071004AE071000AE07106DF63F02B2
:10AF9800FCAD071071F63F02F4AD0710DCAD0710E9
:10AFA80028AE07101FB503F049FB4FF4165103F004
:10AFB80039FB4FF4A072F021264801F0E9FA01F0BC
:10AFC8007FFF0021234800F0D3FB01F079FF03F055
:10AFD8000FFD02F0A1FEFFF7FFFE1F4801F03EFC47
:10AFE800024658B91D4B02A81B781D498DF8003040
:10AFF8003C2302F09FFC03A8FFF7D8FE4FF4FA6049
:10B0080002F032FB174B00221B7817498DF80030ED
:10B0180002A83C2302F08EFC03A8FFF7C7FE00211C
:10B028000C4C2046E17600F0A3FB4FF01E124FF0C7
:10B03800FF3320462421C4E9042300F03CFE2046C7
:10B048000A4902F0FDFF322004B0BDE8104002F0CA
:10B058000BBB00BF30AE071010AE0710F0AD0710E5
:10B068007BF63F02FCAD07108DF63F0298F63F02D3
:10B0780070B5324E324C33688CB0012B55D1314B00
:10B088001D68002D53D123682F49013308A8236078
:10B0980003F05FF90A22216804A803F09AF904A9C9
:10B0A80008A803F0DAF9294B01681B782A468DF8BD
:10B0B800003002A83C2302F03DFC03A8FFF776FE0F
:10B0C80004A803F0FBF808A803F0F8F8FFF744FE1B
:10B0D80035601C4D2B68012B29D123681A49013B87
:10B0E80008A8236003F035F90A22216804A803F0B0
:10B0F80070F904A908A803F0B0F9144B01681B788B
:10B1080000228DF8003002A83C2302F013FC03A8AB
:10B11800FFF74CFE04A803F0D1F808A803F0CEF816
:10B12800FFF71AFE00232B6001E0002BD1D0236823
:10B13800002BDCBF002323600CB070BDB8AD071036
:10B1480008AE0710BCAD07109AF63F02FCAD071019
:10B158007FB5294B294DD3E90021D3E902048A425E
:10B16800B4BF01220222A042D4BF022101211E69DC
:10B178002A60B042696026DA5B699C42ACBF02244F
:10B188000124012AAC6020D1012913D1012C11D14D
:10B198001B4B00221B781B498DF8003002A83C236A
:10B1A80002F0C8FB03A8FFF701FE0022164B1C6043
:10B1B800164B1A600023C5E90033AB6004B0BDE844
:10B1C8007040FFF755BF0224DBE70229F2D1012CBA
:10B1D800F0D10B4B00221B780D498DF8003002A8E6
:10B1E8003C2302F0A7FB03A8FFF7E0FD0022064B73
:10B1F8001A60064B1C60DDE7C0AD0710E0AD071014
:10B20800FCAD0710A4F63F02B8AD0710BCAD07109F
:10B21800ABF63F0202232DE9F74F0025DFF8AC918A
:10B22800624EC9F80030624B624F1D60624BDFF816
:10B23800A0A1358000930023604C3B60CAF8003021
:10B248000193D9F80030019A934240F3A280232158
:10B25800204601F018FB204601F011FBDFF874B11D
:10B26800574B584A1B7812789BF80010204601F07B
:10B2780018FB1E2002F0F8F92121204601F0FCFA03
:10B28800204601F0F3FA204601F000FB308020460A
:10B2980001F0EFFA3A683388DFF8148113443B6011
:10B2A800D8F800300A20013303F0010348BF5B429D
:10B2B800C8F8003002F0D8F92321204601F0E3FA5B
:10B2C800204601F0DCFA3E4B3E4A1B7912789BF887
:10B2D8000010204601F0E5FA1E2002F0C5F92121F0
:10B2E800204601F0C9FA204601F0C0FA204601F0D4
:10B2F800CDFA3080204601F0BCFADAF80030328806
:10B30800D9F800101A44D8F80030CAF800200133E0
:10B3180003F0010348BF5B42C8F800303B6892FB6A
:10B32800F1F293FBF1FC0098132BC0F800C04260C7
:10B3380029DC0023DFF890B0DFF89C800021584614
:10B348008BF81B30C8F8003000F012FA4FF01E12CC
:10B358004FF0FF3324215846CBE9042300F0ABFC1F
:10B36800D8F80080B8F1000F11DA2D21584602F004
:10B378006BFEC8F100010A22134802F068FE40F291
:10B38800DC5002F071F9019B0133019359E7414602
:10B39800F1E7009B01350833032D00937FF44BAF91
:10B3A80003B0BDE8F04FFFF7D3BE00BF0CAE0710E7
:10B3B800ECAD071028AE0710C0AD071010AE07108F
:10B3C800F4AD0710DCAD071030AE071024AE07103F
:10B3D8002CAE0710D8AD071008AE07102DE9F84FAE
:10B3E80000250123534FDFF86C91DFF86CA1DFF8DB
:10B3F8006CB1514E514C3D80C9F80050CAF800500C
:10B40800CBF8003035602321204601F03CFA204675
:10B4180001F035FADFF84881494B4A4998F800208D
:10B428001B780978204601F03CFA192002F01CF933
:10B438002121204601F020FA204601F017FA204683
:10B4480001F024FA3880204601F013FAD9F80020D8
:10B458003B8823211344C9F8003033682046013360
:10B4680003F0010348BF5B42336001F00CFA204649
:10B4780001F005FA324B33491B7998F80020097816
:10B48800204601F00EFA192002F0EEF8212120469C
:10B4980001F0F2F9204601F0E9F9204601F0F6F949
:10B4A8003880204601F0E5F9DAF80030B7F8008076
:10B4B800013598443368CAF80080013303F001036A
:10B4C80048BF5B423360DBF80030AB429BDCD9F805
:10B4D8000000FEF72FFF1C4B044618680D46FEF7C8
:10B4E8003BFF0022194BFEF78FFF02460B46204612
:10B4F8002946FFF705FA98B94046FEF71BFF144B9B
:10B50800044618680D46FEF727FF00220F4BFEF78A
:10B518007BFF02460B4620462946FFF7F1F930B17A
:10B528000A2002F0A1F8BDE8F84FFFF773BEBDE8A6
:10B53800F88F00BF0CAE0710ECAD071010AE071067
:10B54800F4AD0710D8AD071000AE07100000E83FB3
:10B5580004AE071028AE07102CAE071024AE071053
:10B56800DCAD0710FFF73ABF00220B4B10B51A707D
:10B5780001220A4B1A7003F03BFA4FF0FF330146E1
:10B588001A46074801F040F9BDE810400623052295
:10B598001221044800F0F2BFF0AD0710FCAD07100F
:10B5A80010AE071030AE07102DE9F04F1F4685B0DA
:10B5B800BDF93880A7EB010AA8EB0209B9F1000F21
:10B5C800B8BFC9F10009BAF1000FB8BFCAF1000A43
:10B5D800D14583460C461546BDF83C3004DD3A4655
:10B5E8002C4647460D469046BC4205DD2A46454650
:10B5F800904622463C4617463E1BB2B20092A8EB44
:10B60800050282EAE271A1EBE271C6F3C03202FAE6
:10B6180086F64545B4BF01224FF0FF3201917610FE
:10B628000292BC421CDCDBF80020D145D2F818801D
:10B63800C7BF294622462A46214603935846C04793
:10B64800019A039BB61AB1B236B2002E05DA029AF5
:10B658001544009A2DB2561836B2013424B2E0E7E8
:10B6680005B0BDE8F08F704710B404682469A4469B
:10B678005DF8044B604730B4BDF808500468029583
:10B68800A46BA44630BC604730B4BDF808500468C9
:10B698000295E46BA44630BC604770B4BDF90C5009
:10B6A800BDF810600468CDE90356246CA44670BC4C
:10B6B80060472DE9F3411C46164605460F460368C8
:10B6C800013CBDF820805B693444984724B22B685C
:10B6D800CDF80480009428469C6A32463B46394699
:10B6E800A04728462B68DB6A02B0BDE8F04118473E
:10B6F8002DE9F341174604461D460E460368BDF87A
:10B7080020805B699847CDE9007822686B1E334436
:10B718002046956A31463A461BB2A8472046236818
:10B72800DB6A02B0BDE8F04118472DE9F3471E4631
:10B7380003680C465B6905461746BDF92890BDF8B5
:10B748002C8098472644B4422B680BDACDF8008049
:10B758002146D3F820A03A464B4628460134D04724
:10B7680024B2F0E72846DB6A02B0BDE8F047184784
:10B7780013B50191B0F90E1002680091146C002203
:10B78800B0F90C301146A04702B010BD2DE9F743BF
:10B798009942164680460D461C46BDF92870BDF8EC
:10B7A8002C90026812D1BE42C2BF33463E461F46A5
:10B7B800CDF828907B1C946B9B1B3246294640464B
:10B7C800A4461BB203B0BDE8F0436047BE420AD1AD
:10B7D8009942C2BF0B4625461C46CDF82890631CEB
:10B7E8005B1BD46BE9E753699847CDE90079D8F832
:10B7F800003040469F6A324623462946B8474046AD
:10B80800D8F80030DB6A03B0BDE8F04318472DE9EB
:10B81800F34704460F4616461D460368BDF82C80BC
:10B828005B69BDF9289098472368CDF800803246B7
:10B8380039462046D3F824A02B46D047236809F17F
:10B84800FF32CDF80080324439462046D3F824A090
:10B8580012B22B46D0472368CDF8008032463946CD
:10B868002046D3F820A04B46D0476B1ED919236831
:10B87800CDF8008020461D6A32464B4609B2A847DB
:10B8880020462368DB6A02B0BDE8F04718477047D6
:10B8980001F00303B0F90A208376B0F90830C9072C
:10B8A80059BF8381C2818281C381704730B50181CC
:10B8B800002481814FF0FF31054D4281C281054A44
:10B8C8004460C0E90512056004610477046230BD74
:10B8D800BCFB3F02010100012DE9F04F2DED028B69
:10B8E80091B016461F46026ABDF870308346BDF80F
:10B8F80074809DF878509DF87C4003910493002A49
:10B9080040F0C580B0F90C308B4240F34C81B0F95F
:10B918000E30B34240F34781062313FB0513002B77
:10B9280040F3418106EBC403002B40F33C81037FC5
:10B938001BB9AF2F84BF0137FFB2DBF80030584680
:10B948005B6998470522099200220592984A07EBFD
:10B958008703D3180C93B3B20693059A0C9B02FB8A
:10B9680005F99B5C0793ABB20B93BDF80C300893B9
:10B97800039B19FA83F90FFA89F308EE103A0823A2
:10B988004FF000090A93039B02EB030A0FFA8AFAA5
:10B99800079ADBF80030D20752D5012D1FFA89F239
:10B9A8003ED1012C3CD19B6906991F46049B0A4451
:10B9B8005146584612B2B84709F101034FFA83F9C4
:10B9C800079B5B0807930A9B013B13F0FF030A934D
:10B9D800DED1059F01377BB20593099B013B13F02C
:10B9E800FF030993B9D1049B43450FD0012DDBF820
:10B9F80000303BD1012C39D10899CDF800800531B0
:10BA08001C6A32460823584609B2A0475846DBF854
:10BA18000030DB6A11B0BDEC028BBDE8F04F18476F
:10BA280014FB02F206990A44049901910094DB6917
:10BA380018EE101A1F4658462B4612B2B847BBE7F5
:10BA4800049A4245B8D0012D1FFA89F207D1012C7A
:10BA580005D19B6906991F460A444346A8E714FB8B
:10BA680002F20699CDF804800A44DFE70B9AE40055
:10BA780002EB8201089ACDF804800A44114600942A
:10BA8800DC6932462B46584609B2A047BEE7137A0E
:10BA98005168FF1A1268FFB20B9231F8372001EB98
:10BAA800C70306929A78012D0992DA7893F906A0CD
:10BAB8000C9293F905200A9201D8012C57D9BDF9A7
:10BAC800283008930FFA8AF307934FF00008C1460D
:10BAD8004746DBF8003058465B699847B3B20E9387
:10BAE8001AFA86F30F930C9B9F428FD2079B0E9AEC
:10BAF8003B4403FB042300221BB208EE103A4346E2
:10BB080005920F9A02EB070A0FFA8AFA099A059921
:10BB1800914241D25A1CD2B25B070D9207D1069BC3
:10BB280006990B9A01339BB212F80190069319F00B
:10BB3800800F12D0012DDBF80030BDF80C101AD19F
:10BB4800012C18D10A9A9B691144059A1E46114482
:10BB580058465246049B09B2B047059E4FEA490928
:10BB68000136F3B205935FFA89F90D9BCEE70023FE
:10BB7800CDE90733A9E70598089A024402FB0511A5
:10BB8800049A5846CDE90042DB6918EE102A1E4691
:10BB980009B22B46B047E0E7099B013798445FFAA2
:10BBA80088F8FFB29FE711B0BDEC028BBDE8F08FBB
:10BBB800B1F63F02F0B5026A04460B4685B0002A8A
:10BBC80034D10A2908D1438A0282427E03EBC20398
:10BBD8006382012005B0F0BD0D29FAD0E17E007E18
:10BBE800657E71B10621B4F9106011FB0061B4F9EA
:10BBF8000C60B142C1BFB4F91210228201EBC50238
:10BC08006282E28ACDE902050192A28A2046009268
:10BC1800B4F91010B4F91220FFF75EFE237E228AD1
:10BC280003EB430302EB43032382D2E70A2907D13C
:10BC380000230382417E927A438A01FB0233C7E7DD
:10BC48000D29C6D0157AA942C3D3517A9942C0D3D7
:10BC580051685D1BEDB201EBC505A87828B3E978FA
:10BC680019B3E17E267E677E91B195F905100844E7
:10BC7800B4F9101006FB0011B4F90C00814207DD7D
:10BC880000202082B4F91210927A02FB0712628215
:10BC9800E28A20460192A28ACDE902670092B4F9AD
:10BCA8001010B4F91220FFF717FE2979227E238A93
:10BCB80001FB0233B8E7012938BF0121017641763B
:10BCC8007047002180B202F05EBE012180B202F00E
:10BCD8005ABE002180B202F056BE012180B202F0A5
:10BCE80052BE002180B202F04EBE012180B202F0A5
:10BCF8004ABE000038B5044612B209B21D46FFF725
:10BD0800D5FD00220B4B204623609DF9183084F89E
:10BD18003C2084F83D309DF91030226484F83E3090
:10BD28009DF91430A4F8442084F83F30A264656279
:10BD380038BD00BF14FC3F022DE9F04104460D4612
:10BD480016461F46DFF84C8086B0D8E88F0F10F0F3
:10BD580001010BD140460591FEF7F6FF059928B180
:10BD68000B4802F09FF94046FEF7F3FF9DF9343087
:10BD7800324602939DF930302946CDE900732046BA
:10BD8800034BFFF7B7FF204606B0BDE8F08100BFC0
:10BD980084AE071080AE0710F8B50446484F90F9F6
:10BDA8003E00002918BF0F460028164609DB01216E
:10BDB80080B202F0D7FD94F93E00012180B202F072
:10BDC800E2FD94F93F00012180B202F0CBFD94F925
:10BDD8003F00012180B202F0D6FD94F83C5085BBAB
:10BDE8000123606A84F82C50276384F8343084F87F
:10BDF8003560A66302F060F994F93D0000285EDB27
:10BE0800012180B202F0AEFD94F93D00012180B21B
:10BE180002F0B9FD642001F027FC94F93D000021EF
:10BE280080B202F0B0FD642001F01EFC94F93D00E0
:10BE3800012180B202F0A7FDBDE8F840C82001F05A
:10BE480013BC012D20D194F92400294680B202F0B8
:10BE580089FD94F92400002180B202F094FD94F940
:10BE68002600294680B202F07DFD94F926000021C3
:10BE780080B202F088FD94F925000028BCDB00217F
:10BE880080B202F06FFDB7E794F92500012180B276
:10BE980002F068FD94F92500012180B202F073FDDB
:10BEA80094F926000028A7DB012180B202F05AFD90
:10BEB80094F92600012180B202F065FD9CE7F8BDE7
:10BEC8000024F40090F83C3023B900F12801406ABE
:10BED80002F020B9704710B50446FFF7F3FF94F954
:10BEE8003E00002805DBBDE81040002180B202F0CA
:10BEF8004ABD10BD90F83C3013B9406A02F0F0B862
:10BF0800704710B5044690F93E00002803DB012174
:10BF180080B202F038FD2046FFF7ECFF10BD10B5E7
:10BF2800044690F92500002180B202F02CFD94F916
:10BF380025000121BDE8104080B202F024BD2DE9A2
:10BF4800F04105460E4614467AB190F83C304FEA67
:10BF58001128CFB25BB94146686A02F049F93946FF
:10BF6800686A02F045F9013CF5D1BDE8F081012B82
:10BF78001ED1B046102718F4004F95F9240014D0AC
:10BF8800FFF7ABFE95F92600013FFFF79EFE4FEA4B
:10BF9800480895F92600BFB2FFF793FE1FFA88F804
:10BFA800002FE8D1013CE4D1DFE7FFF792FEE9E793
:10BFB800B845DAD02846FFF7B2FF013CFAD1D4E7FA
:10BFC8002DE9F3411D460446BDF82030BDF8246034
:10BFD8000093036892B2D3F8548089B2ABB2BDF92A
:10BFE8002070C0473146204605FB07F202B0BDE885
:10BFF800F041FFF7A4BF2DE9F341BDF92040002B24
:10C0080046D0002C44D0002B05DA013111FA83F117
:10C018005B4209B21BB2B0F90C608E4238DD002CCD
:10C0280005DA013212FA84F2644212B224B2B0F98B
:10C038000E5095422CDD01EB03081FFA88F808F131
:10C04800FF3C0FFA8CFCBCF1000F21DB02EB040E65
:10C058001FFA8EFE0EF1FF373FB2002F18DB0029C2
:10C06800BCBF00210FFA88F3002ABCBF00220FFAD8
:10C078008EF46645DCBF731A1BB2BD42D8BFAC1A3A
:10C08800BDF82450D8BF24B2CDE90045FFF798FF8A
:10C0980002B0BDE8F0812DE9F74380460C4615460D
:10C0A8001E46BDF92870BDF82C90002B52D0002FE9
:10C0B80050D0002B05DA013414FA83F45E4224B21E
:10C0C80036B2B8F90C30A34244DD002F05DA013549
:10C0D80015FA87F57F422DB23FB2B8F90E20AA4271
:10C0E80038DD04EB060E1FFA8EFE0EF1FF3000B2AB
:10C0F80000282FDB05EB070C1FFA8CFC0CF1FF3135
:10C1080009B2002926DB002CBCBF00240FFA8EF6EA
:10C11800002DBCBF00250FFA8CF78342DCBF1B1B28
:10C128001EB28A42D8F80030DCBF521B17B2404614
:10C138005B699847334640462A462146CDE900794F
:10C14800FFF73EFF4046D8F80030DB6A03B0BDE891
:10C15800F043184703B0BDE8F0832DE9F341171EFB
:10C1680006460C461D46BDF8208033DBB0F90E307C
:10C17800BB422FDD002D2DD005DA013414FA85F4E9
:10C188006D4224B22DB2B6F90C30A34222DD6119FA
:10C1980089B24A1E12B2002A1CDB002CBCBF002444
:10C1A8000DB29342DCBF1B1B1DB2336830465B697E
:10C1B80098470123304600933A462B462146CDF84E
:10C1C8000480FFF7FDFE30463368DB6A02B0BDE845
:10C1D800F041184702B0BDE8F0812DE9F3410F1E88
:10C1E800064614461D46BDF8208031DBB0F90C30F8
:10C1F800BB422DDD002D2BD005DA013414FA85F46D
:10C208006D4224B22DB2B6F90E30A34220DD611979
:10C2180089B24A1E12B2002A1ADB002CBCBF0024C5
:10C228000DB29342DCBF1B1B1DB2336830465B69FD
:10C2380098473046012322463946CDE90058FFF792
:10C24800BFFE30463368DB6A02B0BDE8F0411847EC
:10C2580002B0BDE8F081002A73B526DBB0F90E40C4
:10C26800944222DD002B20D005DA013111FA83F146
:10C278005B4209B21BB2B0F90C408C4215DDCE18F6
:10C28800B6B2751E2DB2002D0FDB0029BCBF0021F0
:10C2980033B2AC42D8BF631ABDF81840D8BF1BB23E
:10C2A800019401240094FFF78BFE02B070BD73B5B2
:10C2B800002926DBB0F90C408C4222DD002B20D06F
:10C2C80005DA013212FA83F25B4212B21BB2B0F9FC
:10C2D8000E40944215DDD618B6B2751E2DB2002D4B
:10C2E8000FDB002ABCBF002233B2AC42D8BFA31A6E
:10C2F800BDF81840D8BF1BB2CDE900340123FFF7C1
:10C308005FFE02B070BD70B590F83C3004460D4633
:10C3180023B9BDE87040406A01F06ABF012B18D10B
:10C3280008262B0694F9240010D5FFF7D6FC94F9BB
:10C338002600FFF7CAFC013E94F92600FFF7C1FC6E
:10C348006D0016F0FF06EDB2EBD170BDFFF7C1FC32
:10C35800EDE7FFF7E4FDF8E713B5044690F93F0071
:10C368000191FFF7BEFC20460199FFF7CCFF94F935
:10C378003F0002B0BDE81040FFF7B7BC70B50D46EE
:10C38800036804465B69984755B194F84410204601
:10C39800FFF7E2FF23682046BDE87040DB6A1847D4
:10C3A80094F84510F3E770B590F83C3005460C4614
:10C3B8004BB9090A406A01F01BFF686AE1B2BDE89F
:10C3C800704001F015BF012B18D11026230495F9F0
:10C3D800240010D5FFF781FC95F92600FFF775FCBE
:10C3E800013E95F92600FFF76CFC640016F0FF0685
:10C3F800A4B2EBD170BDFFF76CFCEDE7FFF78FFD42
:10C40800F8E7F7B5002904461E4617DBB0F90C30EB
:10C418008B4213DD002A11DBB0F90E3093420DDD9B
:10C428000123056800936F6D92B289B2B84731460F
:10C43800204603B0BDE8F040FFF7B5BF03B0F0BD3C
:10C448002DE9F3410D1E044616461F4620DBB0F9C0
:10C458000C30AB421CDD002A1ADBB0F90E309342D7
:10C4680016DD03685B69984701232268009320461C
:10C47800D2F85480A9B2B2B2C04720463946FFF775
:10C4880092FF20462368DB6A02B0BDE8F0411847F6
:10C4980002B0BDE8F08170B590F83C3004460D4616
:10C4A8009BB9090E406A01F0A3FEC5F30741606A13
:10C4B80001F09EFEC5F30721606A01F099FE606AEB
:10C4C800E9B2BDE8704001F093BE012B18D12026D7
:10C4D800002D94F9240010DAFFF7FFFB94F92600E9
:10C4E800FFF7F3FB013E94F92600FFF7EAFB16F08D
:10C4F800FF064FEA4505EBD170BDFFF7EAFBEDE714
:10C50800FFF70DFDF8E7704701F00301022970B548
:10C518000446817624D0032925D0012914BFC025DB
:10C52800A02590F84C3090F84D2019BFA0F8403065
:10C53800A0F84220A0F84020A0F842302368204606
:10C548005B69984720463621FFF706FF20462946B3
:10C55800FFF7D9FE23682046BDE87040DB6A18471C
:10C5680000250564EAE7002360250364E6E710B5C3
:10C5780004465021FEF7D9FB204610BD10B50446ED
:10C5880000F09AF8014B2046236010BD98FC3F024A
:10C5980070B504460025002100F0E5F8074B204659
:10C5A800E3600749A4F84C5000F09AF8236829463C
:10C5B8002046BDE870401B6B184700BFF0004001E3
:10C5C8006CFC3F02704770B501F003010229044674
:10C5D80090F84C2090F84D30817620D0032924D053
:10C5E800012917BFC025A025A0F84020A0F8423097
:10C5F80004BFA0F84220A0F84030236820465B69B9
:10C60800984720463621FFF7A7FE20462946FFF720
:10C618007AFE23682046BDE87040DB6A184700258B
:10C62800A0F84020A0F84230E7E76025A0F84220B3
:10C63800A0F84030E1E70000064B0022002918BFAF
:10C648000B4642F221018364A0F844101946FFF713
:10C65800A3BB00BF0024F400F8B50446B0F840704E
:10C66800B0F84250BDF81860394413FA81F72A44EB
:10C6780016FA82F5013F47EA0147013D2A2145EABA
:10C688000245FFF769FE39462046FFF704FF2046BA
:10C698002B21FFF761FE29462046FFF7FCFE2046C6
:10C6A800BDE8F8402C21FFF757BE10B504465021CD
:10C6B800FEF73BFB204610BD13B50446CDE9002329
:10C6C8000B46A0228021FFF737FB044B204623604E
:10C6D8000023A4F84C3002B010BD00BFF8FC3F02A4
:10C6E8002DE9F0470C46036805465B69984714F83E
:10C6F800017B97B32646284616F8021BFFF72CFE47
:10C7080094F80190B24609F07F084446013CE4B22F
:10C71800FF2C05D028461AF8011BFFF7F4FDF5E7B2
:10C7280095F93E00012180B202F02DF995F93E00FD
:10C73800002180B202F027F919F0800F06EB0804F7
:10C7480008D016F808000134FF2808BF4FF4FA7023
:10C7580000F08AFF013FFFB2CBE72B682846BDE80F
:10C76800F047DB6A184738B50D46036800211B6D92
:10C77800044698472DB129462046BDE83840FFF7C2
:10C78800AFBF38BD704708B58068002803DB0021BB
:10C7980080B202F0F8F8BDE808400A2000F064BF53
:10C7A80008B58068002803DB012180B202F0EBF8AD
:10C7B800BDE808400A2000F057BF10B504461C2108
:10C7C800FEF7B3FA204610BD13B50C460DF106016D
:10C7D80000F03FFBBDF80630236002B010BD07B57E
:10C7E8000DF1060100F024FB4EF6AC63BDF806001F
:10C7F800C01A18BF4FF0FF3003B05DF804FB08B54E
:10C8080000F046F908BD00002DE9F8434FF0520941
:10C81800C0E90012C0F80C90836005461C200F4642
:10C8280016469846FEF77DFA044680B10A4B002E5C
:10C83800C0E9003700F11003C0E9026880F81090E1
:10C848004761836103DB0121B0B202F08BF828460F
:10C858002C61BDE8F88300BF58FD3F0208B50069A8
:10C8680000F016F9003818BF012008BD006900F073
:10C8780052B8006900F054B8006900F05BB90221B1
:10C88800006900F050BA006900F0AABA07B50DF1C6
:10C898000601006900F0DDFABDF8060003B05DF896
:10C8A80004FB006900F041B8F7B51546044649088D
:10C8B80040681E46BDF8207001F060FA2B0A6068D7
:10C8C8008DF805508DF8043003680222DB6801A951
:10C8D80098470025AF42606805DD0368715D9B6875
:10C8E80098470135F6E7012101F04CFA002003B022
:10C8F800F0BD1FB58DF80F300123097800930DF1B5
:10C908000F03FFF7D1FF05B05DF804FB0123862272
:10C918008169FFF7EEBF402387228169FFF7E9BFEE
:10C92800002387228169FFF7E4BF102970B50D46FF
:10C9380028BF1025102A164628BF10260A290446A3
:10C9480013D80B2A28BFC723A1697F222046FFF7E7
:10C95800D0FF013D731E45EA03132046A1698022DA
:10C96800BDE87040DBB2FFF7C4BFC723ECE71FB5D3
:10C978001C0A8DF80D3002230978009303AB8DF85B
:10C988000C40FFF791FF04B010BD1FB51C0E8DF8C9
:10C998000C401C0C8DF80D408DF80F301C0A042338
:10C9A8000978009303AB8DF80E40FFF77DFF04B0C4
:10C9B80010BD2DE9F743044690461D4605264F084D
:10C9C8004FEA12293946606801F0D8F960688DF895
:10C9D80004908DF80580036801A90222DB68984756
:10C9E8000021606801F0CEF918B1013E16F0FF068B
:10C9F800E8D139469DF82820606801F0BCF9013D6E
:10CA0800606803681B69984730B1606803685B69B0
:10CA1800984705F8010FF3E703B0BDE8F08313B5B5
:10CA2800012409780094FFF7C4FF003818BF0120DB
:10CA3800404202B010BD13B530220C460DF1070379
:10CA48008169FFF7ECFF9DF807306FEA131303F0D5
:10CA58000103237002B010BD37B505460C460DF131
:10CA68000701FFF7E8FF31222846A9690DF10603FF
:10CA7800FFF7D5FF50B99DF806309DF8072003F061
:10CA880001039A420ABF01232070237003B030BD0E
:10CA9800002373B504462D251B4E8DF80730AAB226
:10CAA800204616F8013BA1690135FFF722FF882DC2
:10CAB800F5D12046FFF72FFF98259DF8073063B979
:10CAC80020460DF10701013DFFF7C6FF15F0FF05F0
:10CAD80017D0012000F0C8FDEFE72046FFF716FF4A
:10CAE8002046FFF71DFF09230822A1692046FFF70A
:10CAF80000FF00230B222046A169FFF7FAFE02B0CF
:10CB080070BD6FF00600FAE774FD3F0213B54B22C3
:10CB18000DF107030C468169FFF781FF9DF8073087
:10CB2800142B03D10123238002B010BD0A2BFBD1A3
:10CB38000223F8E773B50D460DF106010446FFF729
:10CB4800E5FFBDF80630064653B1012B52D1322D10
:10CB580032D007D8142D25D0212D2BD00F2D12D04F
:10CB680001261CE0C82D31D0B5F5FA7F38D0642DE8
:10CB7800F6D140F2E1235E222046A169FFF7F7FED5
:10CB88004FF4627306E01D235E222046A169FFF779
:10CB9800EEFE272361222046A169FFF7E8FE304612
:10CBA80002B070BD51235E222046A169FFF7DFFE67
:10CBB8006E23EFE7D623F6E74FF4D7735E222046BD
:10CBC800A169FFF7D4FE4FF4F473E3E740F2E133D1
:10CBD8005E222046A169FFF7CAFE40F29643D9E7D4
:10CBE80040F291535E222046A169FFF7C0FE40F251
:10CBF800C153CFE7642D27D00DD8212D1AD0322D5F
:10CC08001AD0142DACD11E235E222046A169FFF74D
:10CC1800AEFE2223BEE7C82D20D0B5F5FA7F9FD1FE
:10CC280040F28F435E222046A169FFF7A0FE40F242
:10CC3800A443AFE76023B6E7AD235E222046A1698F
:10CC4800FFF795FEC623A5E74FF4E6735E2220465C
:10CC5800A169FFF78CFE4FF4F5739BE740F2D923E7
:10CC68005E222046A169FFF782FE4FF43E7391E7EA
:10CC78001FB51C460023ADF80C3002230978009339
:10CC880003ABFFF796FE30B99DF80C209DF80D30E8
:10CC980003EB0223238004B010BD13B55E220DF10F
:10CCA80006030C468169FFF7E3FFBDF80630B3F5CC
:10CCB800D77F34D010D8512B2FD005D81D2B28D092
:10CCC8001E2B2AD0002325E0AD2B28D0D62B01D04F
:10CCD800602BF7D121231DE040F2E132934220D0AE
:10CCE8000CD840F2D92293421BD040F2E122934261
:10CCF80002D0B3F5E67FE5D164230BE040F28F4222
:10CD0800934203D040F291529342DBD14FF4FA732D
:10CD180000E00F23238002B010BD1423FAE732236A
:10CD2800F8E7C823F6E737B50D460DF106010446C6
:10CD3800FFF7B3FF012D08D0022D2DD02046BDF8F6
:10CD48000610FFF7F7FE03B030BD14234B22A1698C
:10CD58002046FFF7CEFD07236022A1692046FFF792
:10CD6800C8FD05236322A1692046FFF7C2FD3823C9
:10CD78006922A1692046FFF7BCFD40F205737822BD
:10CD88002046A169FFF7F3FD40F206637A222046A8
:10CD9800A169FFF7ECFDD1E70A234B22A1692046E0
:10CDA800FFF7A7FD0F236022A1692046FFF7A1FD29
:10CDB8000D236322A1692046FFF79BFDB823692252
:10CDC800A1692046FFF795FD40F60D7378222046AD
:10CDD800A169FFF7CCFD40F60E63D7E7000000001D
:10CDE80073B5DE220E460DF1060381690446FFF78E
:10CDF8003FFFBDF806300546C3F3090306FB03F001
:10CE0800ADF80630FDF796FA07A3D3E90023FDF73E
:10CE1800FBFAFDF793FD6C220346A1692046FFF754
:10CE2800B4FD284602B070BD333333333333F13F9A
:10CE3800002313B540F20F120C46ADF80630816995
:10CE48000DF10603FFF714FFBDF80630238002B08A
:10CE580010BD13B596220C460DF106038169FFF744
:10CE680007FFBDF80630238002B010BD09B504489D
:10CE78000068044B03441B685B6C029309BD000007
:10CE880048AD07103000000009B504480068044B9D
:10CE980003441B685B68029309BD000048AD071096
:10CEA8000000000009B504480068044B03441B68EF
:10CEB800DB68029309BD000048AD071000000000C0
:10CEC80009B504480068044B03441B685B69029376
:10CED80009BD000048AD07100000000009B504486E
:10CEE8000068044B03441B689B68029309BD00005B
:10CEF80048AD07101400000009B504480068044B49
:10CF080003441B68DB68029309BD000048AD0710A5
:10CF18001400000009B504480068044B03441B686A
:10CF28001B69029309BD000048AD071014000000FA
:10CF380009B504480068044B03441B68DB68029386
:10CF480009BD000048AD07101000000009B50448ED
:10CF58000068044B03441B689B69029309BD0000E9
:10CF680048AD07101000000009B504480068044BDC
:10CF780003441B68DB69029309BD000048AD071034
:10CF88001000000009B504480068044B03441B68FE
:10CF98001B6A029309BD000048AD0710100000008D
:10CFA80009B504480068044B03441B685B6A029394
:10CFB80009BD000048AD07101000000009B504487D
:10CFC8000068044B03441B689B6A029309BD000078
:10CFD80048AD07101000000009B504480068044B6C
:10CFE80003441B68DB6A029309BD000048AD0710C3
:10CFF8001000000009B504480068044B03441B688E
:10D008001B6B029309BD000048AD0710100000001B
:10D0180009B504480068044B03441B685B6B029322
:10D0280009BD000048AD07101000000009B504480C
:10D038000068044B03441B681B6C029309BD000085
:10D0480048AD07101000000009B504480068044BFB
:10D0580003441B681B6D029309BD000048AD07100F
:10D068001000000009B504480068044B03441B681D
:10D078005B69029309BD000048AD07104C00000031
:10D0880009B504480068044B03441B689B68029375
:10D0980009BD000048AD07105000000009B504485C
:10D0A8000068044B03441B68DB68029309BD000059
:10D0B80048AD07105000000009B504480068044B4B
:10D0C80003441B681B68029309BD000048AD0710A4
:10D0D8001800000009B504480068044B03441B68A5
:10D0E8005B69029309BD000048AD071018000000F5
:10D0F80009B504480068044B03441B68DB690293C4
:10D1080009BD000048AD07101800000009B5044823
:10D118000068044B03441B681B6A029309BD0000A6
:10D1280048AD07101800000009B504480068044B12
:10D1380003441B685B6A029309BD000048AD0710F1
:10D148001800000009B504480068044B03441B6834
:10D15800DB6B029309BD000048AD07101800000002
:10D1680009B504480068044B03441B681B6C029310
:10D1780009BD000048AD07101800000009B50448B3
:10D188000068044B03441B685B6C029309BD0000F4
:10D1980048AD07101800000009B504480068044BA2
:10D1A80003441B68DB68029309BD000048AD071003
:10D1B8002400000009B504480068044B03441B68B8
:10D1C8001B69029309BD000048AD07102400000048
:10D1D80009B504480068044B03441B685B69029363
:10D1E80009BD000048AD07102400000009B5044837
:10D1F8000068044B03441B689B69029309BD000047
:10D2080048AD07102400000009B504480068044B25
:10D2180003441B68DB69029309BD000048AD071091
:10D228002400000009B504480068044B03441B6847
:10D238001B6A029309BD000048AD071024000000D6
:10D2480009B504480068044B03441B689B6A0293B1
:10D2580009BD000048AD07102400000009B50448C6
:10D268000068044B03441B681B6C029309BD000053
:10D2780048AD07102400000009B504480068044BB5
:10D2880003441B681B68029309BD000048AD0710E2
:10D298003400000009B504480068044B03441B68C7
:10D2A8005B68029309BD000048AD07103400000018
:10D2B80009B504480068044B03441B681B690293C2
:10D2C80009BD000048AD07103400000009B5044846
:10D2D8000068044B03441B685B69029309BD0000A6
:10D2E80048AD07103400000009B504480068044B35
:10D2F80003441B689B69029309BD000048AD0710F1
:10D308003400000009B504480068044B03441B6856
:10D31800DB69029309BD000048AD07103400000026
:10D3280009B504480068044B03441B681B6A029350
:10D3380009BD000048AD07103400000009B50448D5
:10D348000068044B03441B685B6B029309BD000033
:10D3580048AD07104800000009B504480068044BB0
:10D3680003441B685B68029309BD000048AD0710C1
:10D378000800000009B504480068044B03441B6812
:10D388005B69029309BD000048AD07100800000062
:10D3980009B504480068044B03441B68DB6C02931E
:10D3A80009BD000048AD07100800000009B5044891
:10D3B8000068044B03441B685B6D029309BD0000C1
:10D3C80048AD07100800000009B504480068044B80
:10D3D80003441B68D3F88830029309BD48AD071091
:10D3E8000800000009B504480068044B03441B68A2
:10D3F800D3F89430029309BD48AD07100800000027
:10D4080009B504480068044B03441B685B69029330
:10D4180009BD000048AD07102C00000009B50448FC
:10D428000068044B03441B681B6A029309BD000093
:10D4380048AD07102C00000009B504480068044BEB
:10D4480003441B68DB6B029309BD000048AD07105D
:10D458002C00000009B504480068044B03441B680D
:10D468005B68029309BD000048AD07102800000062
:10D4780009B504480068044B03441B689B68029381
:10D4880009BD000048AD07102800000009B5044890
:10D498000068044B03441B68DB68029309BD000065
:10D4A80048AD07102800000009B504480068044B7F
:10D4B80003441B681B69029309BD000048AD0710AF
:10D4C8002800000009B504480068044B03441B68A1
:10D4D8005B69029309BD000048AD071028000000F1
:10D4E80009B504480068044B03441B689B69029310
:10D4F80009BD000048AD07102800000009B5044820
:10D508000068044B03441B68DB69029309BD0000F3
:10D5180048AD07102800000009B504480068044B0E
:10D5280003441B681B6A029309BD000048AD07103D
:10D538002800000009B504480068044B03441B6830
:10D548001B6B029309BD000048AD071028000000BE
:10D5580009B504480068044B03441B685B6B0293DD
:10D5680009BD000048AD07102800000009B50448AF
:10D578000068044B03441B681B6C029309BD000040
:10D5880048AD07102800000009B504480068044B9E
:10D5980003441B685B6C029309BD000048AD07108B
:10D5A8002800000009B504480068044B03441B68C0
:10D5B8001B68029309BD000048AD07100400000075
:10D5C80009B504480068044B03441B685B68029370
:10D5D80009BD000048AD07100400000009B5044863
:10D5E8000068044B03441B689B68029309BD000054
:10D5F80048AD07100400000009B504480068044B52
:10D6080003441B68DB6A029309BD000048AD07109C
:10D618000400000009B504480068044B03441B6873
:10D628001B6B029309BD000048AD07100400000001
:10D6380009B504480068044B03441B681B6C02933B
:10D6480009BD000048AD07100400000009B50448F2
:10D658000068044B03441B685B6C029309BD00001F
:10D6680048AD0710040000000021FFF783BE10B585
:10D67800836804460BB901F0A1FAC3689847A36808
:10D688001BB103222146204698472046BDE810409A
:10D698001021FDF74ABB10B58368044613B1032275
:10D6A80001469847204610BD13B56C460B46024606
:10D6B800D0E9000184E8030093E8030082E803004E
:10D6C80094E8030083E8030002B010BD0023024879
:10D6D8000360FFF7CBBB00BF8CAE0710704700207C
:10D6E800704710B504461021FDF71FFB204610BDFA
:10D6F80008B5FFF7F6FF08BD002230B54FF69C7459
:10D70800026084808D888C800C68858004600A6043
:10D7180030BD10B504460068FFF752FF204610BD23
:10D7280038B5C46814B32378DBB2022B03D104F1F3
:10D738000C00FFF7EEFF231D1D6835B12846FFF7E3
:10D74800AAFF10212846FDF7F0FA04F108031D6826
:10D7580035B12846FFF79FFF10212846FDF7E5FA67
:10D768002046BDE838401421FDF7DFBA38BD0B6804
:10D7780003604B68436013B15A6801325A607047BE
:10D7880037B5044668460D46FFF7F1FF009B019A3E
:10D7980023600023626001A801930093FDF706FB54
:10D7A80035B1281DFDF702FB08212846FDF7BDFA13
:10D7B800204603B030BD826810B50AB901F0FEF901
:10D7C800C368BDE81040184708B5006800F11001AB
:10D7D800FFF7F1FF08BD826810B50AB901F0EEF94C
:10D7E800C368BDE81040184708B5006800F110018B
:10D7F800FFF7F1FF08BD000038B5002304460360B9
:10D8080010200D46FDF78DFA28B10123C0E9013338
:10D81800024BC56003602060204638BDD8FD3F023A
:10D8280038B5002383608B6804460D462BB102226D
:10D838009847EB68E360AB68A360204638BD0000FA
:10D84800F0B589B004686846FFF756FF4FF0020349
:10D85800D4E84F2F002A03D1C4E8413F0029F7D16B
:10D8680021D104F10C0569462846FFF745FF01223E
:10D87800631CC3E88F2F002004F10803D3E8EF6F7F
:10D88800C3E8E20F002AF9D16EB1FFF781FD78B144
:10D8980029463046FFF78FFF3046FFF7FCFE102180
:10D8A8003046FDF742FA6846FFF733FF09B0F0BD8E
:10D8B800314602A8FFF7B4FFE068B4F9105008B188
:10D8C80001F0D0F906901020ADF81C50FDF729FAA8
:10D8D8000546E8B1002787601820FDF722FA0446BC
:10D8E80088B10146876002A8FFF7DEFE049BA268A4
:10D8F800A360059B0492E26806A9E36004F11000A6
:10D908000592FFF7F9FE084B2C60EB60074BAB6004
:10D9180006A8FFF7FEFE02A8FFF7BDFE0022294673
:10D928000348FFF743FDB7E7A1E03F021DE33F02CD
:10D9380047DF3F022DE9F04F8BB005460F46904672
:10D9480099469DF850A0FFF75BFD07AE834638BBAC
:10D958004FF62E73059005A93046ADF81830FFF73D
:10D96800CBFE1420FDF7DDF9044648B1022303700D
:10D978000123C0E901BB437031460C30FFF7BCFE00
:10D988002846214640F8044BFFF736FF3046FFF79C
:10D99800C0FE05A8FFF7BDFE28460BB0BDE8F08F16
:10D9A8000C2300241420CDE908440793FDF7B9F9A6
:10D9B800014618B1C0E901440470447004A80391F9
:10D9C800FFF71AFF1E4B08200893FDF7AAF9044633
:10D9D80010B103A9FFF7CBFE4A46414638460096E8
:10D9E8005FFA8AF30994FFF719FDB8B9039B01336D
:10D9F8001B78DBB293B905934FF69C7305A903A86E
:10DA0800ADF81830FFF71CFF05A8FFF782FE05A840
:10DA18000999FFF7B5FE06A8FDF7C8F903A905A8F7
:10DA2800FFF7A5FE059B069A2B6000236A6006A8EF
:10DA380006930593FDF7BAF904A8FDF7B7F9ABE724
:10DA480099E33F02012AF8B5054603D10B68036044
:10DA58000020F8BD022A10D0032AF9D10468002C4E
:10DA6800F6D004F11000FFF754FE2046FFF713FE2E
:10DA780018212046FDF759F9EAE718200E68FDF746
:10DA880050F9044650B13146FFF7CAFE3069B6F97D
:10DA9800147008B101F0E6F82061A7822C60D7E77E
:10DAA80038B5002383608B6804460D462BB10222EB
:10DAB8009847EB68E360AB68A360204638BD000078
:10DAC800F0B5044689B00D4601A81146FFF758FE87
:10DAD800A4B124B21DB1284601F0C4F8054601A836
:10DAE80003A90395ADF81040FFF7AAFE03A8FFF7B6
:10DAF80010FE02A8FDF75AF909B0F0BD0123019DF7
:10DB0800D5E84F2F002A03D1C5E8413F0029F7D1B6
:10DB1800EFD12B730122EB18C3E88F2F2B1DD3E80D
:10DB2800EF6FC3E8E24F002AF9D1002EE1D020467A
:10DB3800FFF72EFC074660B1304605F10C01FFF7F0
:10DB48004AFE3046FFF7A7FD10213046FDF7EDF8F5
:10DB5800CFE7314603A8FFF7A3FF2B7B10208DF8F2
:10DB68001C30FDF7DEF80546D0B187601420FDF7BC
:10DB7800D8F8044678B10146876003A8FFF794FDFA
:10DB8800059BA268A360069B0592E268E3609DF886
:10DB98001C3006922374074B2C60EB60064BAB607D
:10DBA80003A8FFF778FD002229460448FFF7FEFB8B
:10DBB800C7E700BFC1E03F0299E43F0247DF3F02E9
:10DBC800012A70B5044603D10B680360002070BDBC
:10DBD800022A0CD0032AF9D10468002CF6D020467A
:10DBE800FFF759FD14212046FDF79FF8EEE71420B2
:10DBF8000E68FDF796F8054620B13146FFF750FF4D
:10DC0800337C2B742560E1E7002240681146FFF75A
:10DC180083BC002240681146FFF79ABC0022406886
:10DC2800FFF788BC0022406881F00101FFF766BC5D
:10DC3800002340681A461946FFF752BC0023406883
:10DC48001A461946FFF73EBC002240681146FFF706
:10DC58002BBC002240681146FFF70ABC00220221B3
:10DC68004068FFF713BC002340681A46FFF7F2BB71
:10DC78000322024B5A60024A1A60704790AE07109E
:10DC8800F4FD3F027047F8B5064615460C468F1856
:10DC9800BC4206D0336830469B6814F8011B98478D
:10DCA800F6E72846F8BD0022007CFFF76BB9002193
:10DCB800007CFFF775B90021007CFFF77FB90021D0
:10DCC800007CFFF789B90021007CFFF793B910B5F4
:10DCD80004461421FDF729F8204610BD38B504463E
:10DCE80015464FF47A730022C4E90123094B08460C
:10DCF800217423602946FFF799F9BF3008D16B6971
:10DD0800DB0705D56868FFF75BFCE868FFF758FC98
:10DD1800204638BD30FE3F020023007C1A461946D3
:10DD2800FFF706B97FB500221423CDE90122ADF82B
:10DD380004300B78007C8DF808304B680393CB686F
:10DD480004930B7A01A90593FFF77EF907B05DF8F4
:10DD580004FB1FB5003B8DF800104FF0640118BF9D
:10DD680001230391694601928DF80830FFF7DAFF25
:10DD780005B05DF804FB0123FFF7EBBF0022007C30
:10DD8800FFF7E4B80022007CFFF7EEB8704710B543
:10DD980004461821FCF7C9FF204610BDF0B5037DE5
:10DDA8000E46062B4FF000048DB000F1040712D088
:10DDB80000F1080515F8011D0A22304600F047F960
:10DDC800AF42044419D0002CF4D02E21304600F084
:10DDD8003BF90444EEE72F236A4639460A208DF8BA
:10DDE8000040FFF73FF96846FCF776FF33680246C4
:10DDF80069463046DB689847044620460DB0F0BDBA
:10DE080010B50446044B1122002140F8043B00F0F1
:10DE1800EBFE204610BD00BF58FE3F020346074AEE
:10DE280010B543F8042B01F1100251F8044B91424C
:10DE380043F8044BF9D10A781A7010BD58FE3F0216
:10DE480010B59DF8084044EA032343EA024204233C
:10DE580042EA01614160037510BD000007B5064B39
:10DE68000360CB7800938B784A780978FFF7E8FF4E
:10DE780003B05DF804FB00BF58FE3F02014B024AA5
:10DE88001A60704798AE071064FE3F02002340688E
:10DE98001A46FFF7DFBA002202214068FFF7F6BAF8
:10DEA800002240681146FFF7E3BA00224068114695
:10DEB800FFF7FABA002340681A461946FFF702BB73
:10DEC800002340681A461946FFF70ABB002140683C
:10DED800FFF74CBB00214068FFF756BB00224068A3
:10DEE80081F00101FFF70ABB00224068FFF722BB5F
:10DEF800002240681146FFF72BBB002240681146FC
:10DF0800FFF70ABB2DE9F04395B014460D460746C6
:10DF1800FFF776FF00211C220DA8009100F064FE97
:10DF2800402320460C9300216B460CAAFFF7B6F855
:10DF3800044600284BD1024601216868FFF7B4FA6D
:10DF48000221804622466868FFF7AEFA21468146DC
:10DF5800009E002E3BD0002939D17368022B03D0D4
:10DF68000A2B11D0F669F4E7B8F1000FFAD07169FD
:10DF780006A804313C1D07ADFFF770FF0FCD0FC495
:10DF88002B6841462370EDE7B9F1000FEAD0102263
:10DF980001A8746900F028FE062301AD8DF814303D
:10DFA80004F1080318342A4618685968083303C26C
:10DFB800A3421546F7D101A906A83C1D07ADFFF7F6
:10DFC8002DFF0FCD0FC42B6849462370CAE7009870
:10DFD800FFF756F8384615B0BDE8F083024B034A00
:10DFE8001A6000225A6070479CAE071070FE3F020C
:10DFF800F8B506460D4600248F18BD420CD033688C
:10E0080030469B6815F8011B9847031E01DB1C442A
:10E01800F3E7002C08BF1C462046F8BD13B504469C
:10E02800084659B10191FCF757FE0246204623687D
:10E038000199DB6802B0BDE81040184702B010BD76
:10E0480008B5FFF7EBFF08BD03689B681847002376
:10E05800012A98BF0A2230B58BB08DF8243009AC5C
:10E068000D46B1FBF2F101FB125303F0FF03092B3C
:10E0780094BF30333733DBB2AA4204F8013DEFD9FD
:10E088002146FFF7CBFF0BB030BD00000022014B4B
:10E098009A607047A4AE07100021FFF76FB80021FF
:10E0A800FFF75EB810B5044608462170FFF720F860
:10E0B80000232046636010BD13B504460078FFF7BF
:10E0C800EEFF58B920784FF6FF710190FEF7F4FF84
:10E0D800019802B0BDE81040FFF7DEBF02B010BDE6
:10E0E8000078FFF7D9BF000030B500244008186059
:10E0F8001868E5B2884206D90134082C02D04008D5
:10E108001860F5E70725024B5B5D137030BD00BF53
:10E11800A4FE3F022DE9F04306468FB000780C4676
:10E12800FFF7BDFF00281BDB1422002109A8357862
:10E1380000F05AFD0B230022284609A9ADF8243027
:10E14800FEF7F2FF9DF82D3013B19DF82C5055B114
:10E1580000270125B946B84623795DB1C3B100202F
:10E168000FB0BDE8F083DDF830809DF834909DF85D
:10E178003570F1E7002B35D1A368434508D18DF8F8
:10E1880020908DF82170BDF82020A3899A42E6D00E
:10E198000023A1688DF80F300A9804AB0DF10F0227
:10E1A800FFF7A2FF217985B989B9A36843450ED342
:10E1B8008DF820908DF82170BDF82020A3899A420F
:10E1C80005D1049B434502D1C9E70029F9D10023B1
:10E1D8000193637B9DF80F200093237B3078FEF733
:10E1E800B1FFBCE72B462A460121CDE90055F5E7EA
:10E1F80008B50078FEF76EFFC0B208BD2DE9F14FF3
:10E2080057EC106B80460C460022002310EE100AD3
:10E218003946FCF76BFB28B107F100431F462D2355
:10E2280004F8013B00234FF001090A22D9B28845BE
:10E2380003D902FB09F90133F8E74846FCF77AF8F5
:10E2480032463B46FCF7E0F806460F46FCF7AEFBC5
:10E258008A4605468B46FCF7A1F802460B4630462F
:10E268003946FBF719FF0022134BFCF753FB10B19B
:10E2780001354AF1000B4A4628465946D317FCF7A0
:10E288007DFB0123154621460A2200F04AFAB8F11F
:10E29800000F0ED02046FCF71FFD2E232118235413
:10E2A8000A2243462846013101B0BDE8F04F00F08C
:10E2B80038BA01B0BDE8F08F0000E03F10B5044661
:10E2C8000068FFF77DF9204610BD10B504460068C8
:10E2D80008B1FFF775F90023C4E90133236010BDC5
:10E2E80038B504460D4600680131FFF777F910B1DB
:10E2F800C4E90005012038BD10B50368044623B100
:10E3080043688B4201D3012010BD2046FFF7E8FF88
:10E318000028F9D0A368002BF5D122681370F2E722
:10E3280037B50D46114601920446FFF7E5FF019AFD
:10E3380028B92046FFF7C9FF204603B030BD29465B
:10E34800A260206800F043FC00212268A368D15431
:10E35800F2E7002313B50446C0E900338360037372
:10E3680041B108460191FCF7B7FC019902462046E5
:10E37800FFF7D6FF204602B010BD884210B504460C
:10E3880005D00B682BB18A681946FFF7C9FF2046EC
:10E3980010BDFFF79AFFFAE7002310B50446C0E95D
:10E3A800003383600373FFF7E8FF204610BD13B501
:10E3B800044659B108460191FCF78EFC01990246C2
:10E3C8002046FFF7ADFF204602B010BDFFF77DFFE6
:10E3D800F9E710B5002304468AB0C4E90033A36006
:10E3E8002373084601A900F0C1F9204601A9FFF7E7
:10E3F800DEFF20460AB010BD30B5002304468BB0BE
:10E40800C4E90033A360237310EE100ACDB2FBF702
:10E41800A3FF41EC100B284601A9FFF7EFFE2046A9
:10E4280001A9FFF7C4FF20460BB030BD70B5054603
:10E438000E4609B9002070BD6AB1846814442146AB
:10E44800FFF75AFF0028F5D02868AB683146184412
:10E4580000F000FCAC600120EDE710B58A6809689F
:10E468000446FFF7E3FF10B92046FFF72EFF2046CA
:10E4780010BD13B5044629B92046FFF726FF2046EC
:10E4880002B010BD08460191FCF726FC019902462E
:10E498002046FFF7CBFF0028EED0F0E7022200204D
:10E4A800044B1A60044B054AC3E900009A60FEF762
:10E4B80053BF00BFC0AE0710B4AE07100000FFFF87
:10E4C800024B1A68024B1A60704700BF4CAD071028
:10E4D800C4AE071070474174704708B5007CFEF75A
:10E4E800AFFE20EAE07008BD08B5007CFEF762FECA
:10E4F80020EAE07008BD08B5007CFEF777FE40EA28
:10E50800E07008BD08B5007CFEF762FE40EAE070E6
:10E5180008BD007CFEF778BE37B5457C04462DB1B2
:10E52800207C03B0BDE83040FEF736BE007C019188
:10E53800FEF786FE00280199F2DC284603B030BDBC
:10E5480010B504461421FCF7F0FB204610BD00006E
:10E5580010B54FF47A730446084611460022C4E900
:10E568000123044B2074236001236374FEF776FEB5
:10E57800204610BDD0FE3F02007CFEF753BE41741A
:10E5880070477047704708B50021007CFEF7ACFE65
:10E5980040EAE07008BD08B50121007CFEF7A4FE42
:10E5A80040EAE07008BD08B5007CFEF78FFE20EA5F
:10E5B800E07008BD08B5007CFEF77AFE20EAE0703E
:10E5C80008BD13B50446007C0191FEF77FFE0028C4
:10E5D800019901DC607C20B1207CFEF793FE20EAE3
:10E5E800E07002B010BD007CFEF79ABE10B504467C
:10E5F8001421FCF79AFB204610BD000010B54FF41B
:10E608007A73044608460021C4E90113044B2074B8
:10E618002360012311466374FEF72EFE204610BDC9
:10E6280000FF3F020022007CFEF734BE10B504460E
:10E638001422002100F0D8FA204610BD10B588B089
:10E6480003A8FFF7F3FF0C4CD4E88F1F11F001016A
:10E658000FD120460191FCF777FB019948B103AA35
:10E668000648FFF7CBFF2046FCF773FB044800F091
:10E67800A8FA024808B010BDC8AE0710CCAE071003
:10E688005BEE3F02002240681146FEF70DBF0022F4
:10E6980040681146FEF740BF002240681146FEF769
:10E6A80057BF00224068FEF745BF0022406881F04E
:10E6B8000101FEF723BF002340681A461946FEF7FA
:10E6C8000FBF002340681A461946FEF7FBBE00221A
:10E6D80040681146FEF7CCBE002202214068FEF7D2
:10E6E800D5BE002340681A46FEF7B4BE0422024B8A
:10E6F8005A60024A1A607047E0AE071030FF3F02C6
:10E7080010B50446FCF7E8FA01382318204683427E
:10E7180006D90278197800F8011B03F80129F6E7F1
:10E7280010BD70B50C46911E22291DD8254630B95A
:10E73800302223449D4210D205F8012BFAE7B0FBA2
:10E74800F2F602FB1600C1B2092894BF30315731E6
:10E75800C9B2304605F8011BE9E7002320462B70B3
:10E76800FFF7CEFF204670BD0020FCE738B5031E3A
:10E778000C4615460DDA2D22B3F1004F0CBF184692
:10E78800584201230A702A461944FFF7CAFF204657
:10E7980038BD0123F9E70000014B1860704700BF3E
:10E7A80050AD071008B50F4B43B1FFF747FF03689B
:10E7B8001B699847002801DD00E000BF0A4B43B100
:10E7C80000F06AF903681B699847002801DD00E03A
:10E7D80000BF064B0BB100F0A5F9054B0BB100F0DB
:10E7E800D7F908BD0000000000000000000000008C
:10E7F8000000000008B5FFF7D5FFFEF761FB014BED
:10E80800186008BDF0AE07100548064A08B5121A88
:10E81800054900F0DCF9054B054A1A6008BD00BF40
:10E8280000B4071004B407109CF75F0800B4071081
:10E838001E1C279A002307B51A466FF0770100932C
:10E84800FEF7D0FD03B05DF804FB000007B5438870
:10E858000A2B08D0502B0BD1094B1B684BB103B0C6
:10E868005DF804EB1847FFF7E5FF03B05DF804FB1C
:10E8780000231A466FF077010093FEF7B3FDF4E723
:10E88800ECAE0710002110B51148FEF7DFFE114B62
:10E898001A68114B9A420CBF012200220F4B1A70C2
:10E8A80001D0FFF7B1FFFEF7EFFA044600F0A4F934
:10E8B8000B4B13B1204600E000BF00210848FEF7CB
:10E8C800BBFDBDE8104000210648FEF77DBD00BF36
:10E8D80071F03F0200B407101E1C279AE8AE07101B
:10E8E8000000000025F13F021B2837B5044602D975
:10E8F800002003B030BDA0F10F03022B0BD9012873
:10E9080021D800F075F80021007CFEF781FB80F02B
:10E918000100C0B2EDE7114DD5E88F1F11F00101DC
:10E928000BD128460191FCF70FFA019928B10C4840
:10E93800FFF7B8FB2846FCF70CFA094B1878FEF7E6
:10E94800E5FB0028D4D1083C012C05D800F0A4F838
:10E95800007CFEF767FCDAE70120CAE780AE071003
:10E9680084AE07101B2838B504460D460AD8FF297F
:10E9780008D0FFF7B9FF28B129462046BDE838403E
:10E98800FEF7ACBA38BD38B504460D46FEF7B4FA02
:10E99800FF2810D0062804D84D2323FA00F0C30717
:10E9A80009D42046FFF7A0FF28B129462046BDE834
:10E9B8003840FEF7AFBA38BD7047000038B50A4B8B
:10E9C80004460360012309494361202000F0F4F85C
:10E9D8002025606005492846A56000F0EDF8C4E9E7
:10E9E8000305204638BD00BF1800010064FF3F0240
:10E9F80030B50E4D87B0D5E88F1F11F0010411D145
:10EA08002846FCF7A1F968B16846FFF7D7FF6A46C0
:10EA180021460748FFF762F92846FCF79AF90548A6
:10EA280000F0CFF8024807B030BD00BFF4AE0710C1
:10EA3800F8AE071091F23F027047000038B5142570
:10EA480004462A46002100F0CFF8258040250749D2
:10EA580028462581258200F0AFF8044960602846E1
:10EA680000F0AAF8E060204638BD00BF64FF3F020E
:10EA78007047704710B50446FFF7E0FF204610BD09
:10EA880010B50446FFF7DAFF204610BD10B504465E
:10EA9800FFF7D4FF204610BD30B50E4D87B0D5E83E
:10EAA8008F1F11F0010411D12846FCF74DF968B108
:10EAB80001A8FFF7DFFF214601AA0748FFF748FD35
:10EAC8002846FCF746F9054800F07BF8024807B0ED
:10EAD80030BD00BF0CAF071018AF071011F33F028D
:10EAE80010B50D4C86B0D4E88F3FDB0711D4204613
:10EAF800FCF72AF968B101A8FFF7C2FF012101AAB2
:10EB08000648FFF725FD2046FCF723F9044800F0E6
:10EB180058F8024806B010BD10AF07102CAF071008
:10EB28004BF33F0210B5FFF7DBFF074B044653B129
:10EB3800FFF722FD38B1236820461B699847002853
:10EB480001DD00E000BF10BD0000000010B50D4C55
:10EB580086B0D4E88F3FDB0711D42046FCF7F4F8E1
:10EB680068B101A8FFF792FF022101AA0648FFF742
:10EB7800EFFC2046FCF7EDF8044800F022F80248C4
:10EB880006B010BD14AF071040AF071049F33F029D
:10EB980010B5FFF7DBFF074B044653B1FFF7ECFC5A
:10EBA80038B1236820461B699847002801DD00E03A
:10EBB80000BF10BD00000000FCF7B5B808B5FEF7AF
:10EBC8001BFD002301461A46184600F069B80A449E
:10EBD800431E914200D1704710B511F8014B914284
:10EBE80003F8014FF9D110BD02440346934200D106
:10EBF800704703F8011BF9E738B5104B04461D6848
:10EC0800AB6BB3B91820FEF7CDFC0246A86320B958
:10EC18000B4B42210B48FEF70BFD0B490B4BC0E990
:10EC280000130B4B002183600B2383810120C2E971
:10EC38000401AB6B00221C615A6138BD50AD07104E
:10EC480065FF3F027CFF3F020E33CDAB34126DE609
:10EC5800ECDE0500034611F8012B03F8012B002A0E
:10EC6800F9D17047024B0146186800F003B800BF9D
:10EC780050AD071037B5044608460D46FCF72CF88A
:10EC8800421C204611460192FEF7C4FC044618B106
:10EC9800019A2946FFF79BFF204603B030BD0000CC
:10ECA8002DE9F843DFF8BC8006461F460D46D8F824
:10ECB8000000914600F058F8264B1C6834B9264CE1
:10ECC8001C60264B13B11B68C4F8883063681F2B7F
:10ECD80007DDD8F8000000F049F84FF0FF30BDE834
:10ECE800F8835EB3D4F8880088B91D4B23B9D8F8E7
:10ECF800000000F03AF8F0E74FF48470FEF752FC99
:10ED08000028F4D00023C0E94033C4F888006368C1
:10ED18000122022E40F8239002FA03F200EB83014D
:10ED2800D0F8003143EA0203C0F80031C1F880701E
:10ED380002BFD0F804311343C0F804316368D8F82F
:10ED480000005A1C0233626044F8235000F00EF8A9
:10ED58000020C4E7E0AF071054AF07100000000020
:10ED68007DDE3F02B4AD0710704770477047000062
:10ED7800C1B53F02E9B53F02EDB53F020000000012
:10ED880043616C6C206F6E207075726520766972B5
:10ED98007475616C00202620005A6F6E65735F439E
:10EDA8003A2000436F756E746572206973206F6E28
:10EDB8006C696E65004920616D2072656164790037
:10EDC8003000436F756E7465723A2000456E747238
:10EDD80079200045786974200000000000003E5B3F
:10EDE8004F5B3E3E6B4F6B3E1C3E7C3E1C183C7E90
:10EDF8003C181C577D571C1C5E7F5E1C00183C1875
:10EE080000FFE7C3E7FF0018241800FFE7DBE7FF70
:10EE180030483A060E2629792926407F05050740FD
:10EE28007F05253F5A3CE73C5A7F3E1C1C08081CBE
:10EE38001C3E7F14227F22145F5F005F5F06097FFC
:10EE4800017F006689956A606060606094A2FFA295
:10EE58009408047E040810207E201008082A1C0844
:10EE6800081C2A08081E101010100C1E0C1E0C304E
:10EE7800383E3830060E3E0E060000000000000046
:10EE88005F00000007000700147F147F14242A7F06
:10EE98002A122313086462364956205000080703D3
:10EEA80000001C2241000041221C002A1C7F1C2A51
:10EEB80008083E08080080703000080808080800A4
:10EEC8000060600020100804023E5149453E00429F
:10EED8007F400072494949462141494D331814126F
:10EEE8007F1027454545393C4A4949314121110997
:10EEF800073649494936464949291E000014000089
:10EF080000403400000008142241141414141400A2
:10EF18004122140802015909063E415D594E7C12EE
:10EF280011127C7F494949363E414141227F414186
:10EF3800413E7F494949417F090909013E41415103
:10EF4800737F0808087F00417F41002040413F014E
:10EF58007F081422417F404040407F021C027F7F8F
:10EF68000408107F3E4141413E7F090909063E41A0
:10EF780051215E7F09192946264949493203017FF3
:10EF880001033F4040403F1F2040201F3F40384082
:10EF98003F631408146303047804036159494D431B
:10EFA800007F4141410204081020004141417F0493
:10EFB800020102044040404040000307080020547A
:10EFC8005478407F284444383844444428384444DA
:10EFD800287F385454541800087E090218A4A49CA9
:10EFE800787F0804047800447D40002040403D00BC
:10EFF8007F1028440000417F40007C047804787C1E
:10F00800080404783844444438FC18242418182484
:10F018002418FC7C08040408485454542404043F6D
:10F0280044243C4040207C1C2040201C3C40304074
:10F038003C44281028444C9090907C4464544C44A0
:10F048000008364100000077000000413608000241
:10F05800010204023C2623263C1EA1A161123A406B
:10F0680040207A38545455592155557941225454E1
:10F078007842215554784020545579400C1E5272DC
:10F0880012395555555939545454593955545458B9
:10F098000000457C410002457D420001457C407DE1
:10F0A8001211127DF0282528F07C54554500205473
:10F0B800547C547C0A097F4932494949323A4444CC
:10F0C800443A324A4848303A4141217A3A4240204B
:10F0D80078009DA0A07D3D4242423D3D4040403DDC
:10F0E8003C24FF2424487E4943662B2FFC2F2BFF0A
:10F0F8000929F620C0887E0903205454794100006C
:10F10800447D413048484A32384040227A007A0AE1
:10F118000A727D0D19317D2629292F2826292929AA
:10F128002630484D402038080808080808080838DC
:10F138002F10C8ACBA2F102834FA00007B00000842
:10F14800142A142222142A14085500550055AA55C9
:10F15800AA55AAFF55FF55FF000000FF0010101028
:10F16800FF00141414FF001010FF00FF1010F0101F
:10F17800F0141414FC001414F700FF0000FF00FF43
:10F188001414F404FC141417101F10101F101F146B
:10F1980014141F00101010F0000000001F101010B1
:10F1A800101F10101010F010000000FF10101010A9
:10F1B8001010101010FF10000000FF140000FF00D6
:10F1C800FF00001F10170000FC04F4141417101798
:10F1D8001414F404F40000FF00F7141414141414A5
:10F1E80014F700F7141414171410101F101F141418
:10F1F80014F4141010F010F000001F101F0000008D
:10F208001F14000000FC140000F010F01010FF1094
:10F21800FF141414FF141010101F00000000F01049
:10F22800FFFFFFFFFFF0F0F0F0F0FFFFFF0000002E
:10F238000000FFFF0F0F0F0F0F3844443844FC4AFB
:10F248004A4A347E02020606027E027E026355495D
:10F2580041633844443C04407E201E2006027E025E
:10F268000299A5E7A5991C2A492A1C4C7201724CDF
:10F27800304A4D4D303048784830BC625A463D3EA1
:10F28800494949007E0101017E2A2A2A2A2A444442
:10F298005F444440514A444040444A51400000FFC2
:10F2A8000103E080FF000008086B6B083612362463
:10F2B80036060F090F06000018180000001010008D
:10F2C8003040FF0101001F01011E00191D17120027
:10F2D8003C3C3C3C00000000000000000000000036
:10F2E8000000000000000000000000008DC43F0284
:10F2F800C9E83F0209B63F023FBF3F0241BF3F0294
:10F3080073BF3F024FBF3F0261BF3F0281BE3F0252
:10F318003FBF3F0269C13F0267C13F028BBF3F0247
:10F32800C9BF3F0203C03F0249C03F0265C03F0258
:10F33800E7C03F02000000000000000000000000DD
:10F34800000000008DC43F02C9E83F0219CD3F020A
:10F35800AFC73F02DBCC3F02CFC83F0287CB3F029B
:10F368002FCB3F0281BE3F02DBC73F0269C13F028C
:10F3780055CC3F02B3CA3F0233CA3F026FC93F02AE
:10F3880049C03F0265C03F02E7C03F0209B63F02DD
:10F3980009B63F02090180961180FF3A81550A3665
:10F3A80001082A04000000F02B04000000F021806E
:10F3B8000A13800A2980FF000000000000000000F6
:10F3C800DFCD3F0247CE3F028DC43F02C9E83F026E
:10F3D80019CD3F02AFC73F02DBCC3F02CFC83F0287
:10F3E80087CB3F022FCB3F0281BE3F02DBC73F02E4
:10F3F800E1CD3F0255CC3F02B3CA3F0233CA3F02B8
:10F408006FC93F0249C03F0265C03F02E7C03F02E3
:10F4180011CF3F0231CF3F02000000000000000082
:10F428009DCE3F0283CF3F028DC43F02C9E83F0211
:10F4380019CD3F02AFC73F02DBCC3F02CFC83F0226
:10F4480087CB3F022FCB3F0281BE3F02DBC73F0283
:10F458009FCE3F0255CC3F02B3CA3F0233CA3F0298
:10F468006FC93F0249C03F0265C03F02E7C03F0283
:10F4780011CF3F0231CF3F02000000000000000022
:10F48800D7D03F02B7D03F02A1D03F025DD03F02A4
:10F4980093D03F0279D03F025FD03F0200010101C3
:10F4A80002000208000810010100000000FF000F20
:10F4B8000000000000200B0000020A2100000500E7
:10F4C800000000C8000038FF010008000001DB0F41
:10F4D80001F10D0168008008B8000000000F8900E4
:10F4E800000000000000010F0D0E0E000002C7FF13
:10F4F8009B00000001000000000000000000000068
:10F50800B5DF3F02BBDF3F02F9DF3F02C9DF3F0241
:10F51800B7DF3F0200000000000000003FE53F02A7
:10F5280035E53F022BE53F0221E53F0215E53F02A5
:10F5380009E53F02A5E73F02ADE73F02FDE43F02D0
:10F54800F5E43F02EBE43F02E1E43F02DDE73F027E
:10F5580000000000000000005DE53F02A7E53F0253
:10F568007FE53F025FE53F0287E53F028FE53F0207
:10F5780097E53F029FE53F02000000000000000001
:10F5880075E63F0265E63F0267E63F02617070007C
:10F59800000000000000000065E73F026FE73F023F
:10F5A80079E73F0283E73F028DE73F0299E73F0291
:10F5B800A5E73F02ADE73F02B5E73F02C1E73F02DB
:10F5C800C9E73F02D3E73F02DDE73F020008101812
:10F5D8002028303825592D256D2D25645425483A85
:10F5E800254D3A2553257A0061736374696D65006A
:10F5F8000000000000000000ADED3F0219EE3F02E0
:10F60800F1ED3F02C9E83F02C1ED3F02DDED3F02E7
:10F61800CFED3F02EBED3F02AFED3F02B3ED3F020E
:10F6280000000000000000005DEE3F02C5EE3F0252
:10F638009BEE3F02C9E83F028DEE3F025FEE3F02BC
:10F648006FEE3F02BFEE3F027FEE3F0257EE3F02F2
:10F658000000000000000000BBEF3F02B1EF3F02D6
:10F66800A7EF3F025DEF3F029BEF3F028FEF3F02A4
:10F67800A5E73F02ADE73F0283EF3F027BEF3F0282
:10F6880071EF3F0267EF3F02DDE73F020052454559
:10F698004E54206D616C6C6F632073756363656590
:10F6A800646564002F746D702F6A656E6B696E7384
:10F6B8002D4743432D31302D706970656C696E6537
:10F6C8002D34385F32303230313132345F313630B8
:10F6D800363138303633392F7372632F6E65776C55
:10F6E80069622F6E65776C69622F6C6962632F732C
:10F6F80074646C69622F72616E642E63000000008E
:10F7080041BE3F02A5DF3F0249E53F0255E73F0200
:10F71800B5E83F0265E93F0275ED3F0299ED3F020A
:04F72800C5EF3F02E8
:10F72C0000000002C0FE3F0254AD071000000000B4
:10F73C0000000000000000000000000000000000BD
:10F74C0000000000000000000000000000000000AD
:10F75C00000000000000000000000000000000009D
:10F76C00000000000000000000000000000000008D
:10F77C00000000000000000000000000000000007D
:10F78C00000000000000000000000000E4AF0710C3
:04F79C000000000069
:10FFBE000200100000A05F0890A05F0860A93F0239
:10FFCE0001000A00FFFFFFFFFFFF00000102030414
:10FFDE0005060708090A0B0C0D0E0F10111213144B
:0EFFEE0015161718191A1B1C1D1E1F203E0089
:04FFFC0078563412ED
:04000005085FA018D8
:00000001FF
